{
  "contracts/SimpleSwap.sol": {
    "SimpleSwap": {
      "abi": [
        {
          "inputs": [],
          "stateMutability": "nonpayable",
          "type": "constructor"
        },
        {
          "inputs": [
            {
              "internalType": "address",
              "name": "spender",
              "type": "address"
            },
            {
              "internalType": "uint256",
              "name": "allowance",
              "type": "uint256"
            },
            {
              "internalType": "uint256",
              "name": "needed",
              "type": "uint256"
            }
          ],
          "name": "ERC20InsufficientAllowance",
          "type": "error"
        },
        {
          "inputs": [
            {
              "internalType": "address",
              "name": "sender",
              "type": "address"
            },
            {
              "internalType": "uint256",
              "name": "balance",
              "type": "uint256"
            },
            {
              "internalType": "uint256",
              "name": "needed",
              "type": "uint256"
            }
          ],
          "name": "ERC20InsufficientBalance",
          "type": "error"
        },
        {
          "inputs": [
            {
              "internalType": "address",
              "name": "approver",
              "type": "address"
            }
          ],
          "name": "ERC20InvalidApprover",
          "type": "error"
        },
        {
          "inputs": [
            {
              "internalType": "address",
              "name": "receiver",
              "type": "address"
            }
          ],
          "name": "ERC20InvalidReceiver",
          "type": "error"
        },
        {
          "inputs": [
            {
              "internalType": "address",
              "name": "sender",
              "type": "address"
            }
          ],
          "name": "ERC20InvalidSender",
          "type": "error"
        },
        {
          "inputs": [
            {
              "internalType": "address",
              "name": "spender",
              "type": "address"
            }
          ],
          "name": "ERC20InvalidSpender",
          "type": "error"
        },
        {
          "inputs": [
            {
              "internalType": "address",
              "name": "owner",
              "type": "address"
            }
          ],
          "name": "OwnableInvalidOwner",
          "type": "error"
        },
        {
          "inputs": [
            {
              "internalType": "address",
              "name": "account",
              "type": "address"
            }
          ],
          "name": "OwnableUnauthorizedAccount",
          "type": "error"
        },
        {
          "anonymous": false,
          "inputs": [
            {
              "indexed": true,
              "internalType": "address",
              "name": "owner",
              "type": "address"
            },
            {
              "indexed": true,
              "internalType": "address",
              "name": "spender",
              "type": "address"
            },
            {
              "indexed": false,
              "internalType": "uint256",
              "name": "value",
              "type": "uint256"
            }
          ],
          "name": "Approval",
          "type": "event"
        },
        {
          "anonymous": false,
          "inputs": [
            {
              "indexed": true,
              "internalType": "address",
              "name": "tokenA",
              "type": "address"
            },
            {
              "indexed": true,
              "internalType": "address",
              "name": "tokenB",
              "type": "address"
            },
            {
              "indexed": false,
              "internalType": "uint256",
              "name": "amountA",
              "type": "uint256"
            },
            {
              "indexed": false,
              "internalType": "uint256",
              "name": "amountB",
              "type": "uint256"
            },
            {
              "indexed": false,
              "internalType": "uint256",
              "name": "liquidity",
              "type": "uint256"
            }
          ],
          "name": "LiquidityAdded",
          "type": "event"
        },
        {
          "anonymous": false,
          "inputs": [
            {
              "indexed": true,
              "internalType": "address",
              "name": "tokenA",
              "type": "address"
            },
            {
              "indexed": true,
              "internalType": "address",
              "name": "tokenB",
              "type": "address"
            },
            {
              "indexed": false,
              "internalType": "uint256",
              "name": "amountA",
              "type": "uint256"
            },
            {
              "indexed": false,
              "internalType": "uint256",
              "name": "amountB",
              "type": "uint256"
            },
            {
              "indexed": false,
              "internalType": "uint256",
              "name": "liquidity",
              "type": "uint256"
            }
          ],
          "name": "LiquidityRemoved",
          "type": "event"
        },
        {
          "anonymous": false,
          "inputs": [
            {
              "indexed": true,
              "internalType": "address",
              "name": "previousOwner",
              "type": "address"
            },
            {
              "indexed": true,
              "internalType": "address",
              "name": "newOwner",
              "type": "address"
            }
          ],
          "name": "OwnershipTransferred",
          "type": "event"
        },
        {
          "anonymous": false,
          "inputs": [
            {
              "indexed": true,
              "internalType": "address",
              "name": "tokenIn",
              "type": "address"
            },
            {
              "indexed": true,
              "internalType": "address",
              "name": "tokenOut",
              "type": "address"
            },
            {
              "indexed": false,
              "internalType": "uint256",
              "name": "amountIn",
              "type": "uint256"
            },
            {
              "indexed": false,
              "internalType": "uint256",
              "name": "amountOut",
              "type": "uint256"
            },
            {
              "indexed": true,
              "internalType": "address",
              "name": "to",
              "type": "address"
            }
          ],
          "name": "Swap",
          "type": "event"
        },
        {
          "anonymous": false,
          "inputs": [
            {
              "indexed": true,
              "internalType": "address",
              "name": "from",
              "type": "address"
            },
            {
              "indexed": true,
              "internalType": "address",
              "name": "to",
              "type": "address"
            },
            {
              "indexed": false,
              "internalType": "uint256",
              "name": "value",
              "type": "uint256"
            }
          ],
          "name": "Transfer",
          "type": "event"
        },
        {
          "inputs": [
            {
              "internalType": "address",
              "name": "tokenA",
              "type": "address"
            },
            {
              "internalType": "address",
              "name": "tokenB",
              "type": "address"
            },
            {
              "internalType": "uint256",
              "name": "amountADesired",
              "type": "uint256"
            },
            {
              "internalType": "uint256",
              "name": "amountBDesired",
              "type": "uint256"
            },
            {
              "internalType": "uint256",
              "name": "amountAMin",
              "type": "uint256"
            },
            {
              "internalType": "uint256",
              "name": "amountBMin",
              "type": "uint256"
            },
            {
              "internalType": "address",
              "name": "to",
              "type": "address"
            },
            {
              "internalType": "uint256",
              "name": "deadline",
              "type": "uint256"
            }
          ],
          "name": "addLiquidity",
          "outputs": [
            {
              "internalType": "uint256",
              "name": "amountA",
              "type": "uint256"
            },
            {
              "internalType": "uint256",
              "name": "amountB",
              "type": "uint256"
            },
            {
              "internalType": "uint256",
              "name": "liquidity",
              "type": "uint256"
            }
          ],
          "stateMutability": "nonpayable",
          "type": "function"
        },
        {
          "inputs": [
            {
              "internalType": "address",
              "name": "owner",
              "type": "address"
            },
            {
              "internalType": "address",
              "name": "spender",
              "type": "address"
            }
          ],
          "name": "allowance",
          "outputs": [
            {
              "internalType": "uint256",
              "name": "",
              "type": "uint256"
            }
          ],
          "stateMutability": "view",
          "type": "function"
        },
        {
          "inputs": [
            {
              "internalType": "address",
              "name": "spender",
              "type": "address"
            },
            {
              "internalType": "uint256",
              "name": "value",
              "type": "uint256"
            }
          ],
          "name": "approve",
          "outputs": [
            {
              "internalType": "bool",
              "name": "",
              "type": "bool"
            }
          ],
          "stateMutability": "nonpayable",
          "type": "function"
        },
        {
          "inputs": [
            {
              "internalType": "address",
              "name": "account",
              "type": "address"
            }
          ],
          "name": "balanceOf",
          "outputs": [
            {
              "internalType": "uint256",
              "name": "",
              "type": "uint256"
            }
          ],
          "stateMutability": "view",
          "type": "function"
        },
        {
          "inputs": [],
          "name": "decimals",
          "outputs": [
            {
              "internalType": "uint8",
              "name": "",
              "type": "uint8"
            }
          ],
          "stateMutability": "view",
          "type": "function"
        },
        {
          "inputs": [
            {
              "internalType": "uint256",
              "name": "amountIn",
              "type": "uint256"
            },
            {
              "internalType": "uint256",
              "name": "reserveIn",
              "type": "uint256"
            },
            {
              "internalType": "uint256",
              "name": "reserveOut",
              "type": "uint256"
            }
          ],
          "name": "getAmountOut",
          "outputs": [
            {
              "internalType": "uint256",
              "name": "amountOut",
              "type": "uint256"
            }
          ],
          "stateMutability": "pure",
          "type": "function"
        },
        {
          "inputs": [
            {
              "internalType": "address",
              "name": "tokenA",
              "type": "address"
            },
            {
              "internalType": "address",
              "name": "tokenB",
              "type": "address"
            }
          ],
          "name": "getPrice",
          "outputs": [
            {
              "internalType": "uint256",
              "name": "price",
              "type": "uint256"
            }
          ],
          "stateMutability": "view",
          "type": "function"
        },
        {
          "inputs": [
            {
              "internalType": "address",
              "name": "tokenA",
              "type": "address"
            },
            {
              "internalType": "address",
              "name": "tokenB",
              "type": "address"
            }
          ],
          "name": "getReserves",
          "outputs": [
            {
              "internalType": "uint256",
              "name": "reserveA",
              "type": "uint256"
            },
            {
              "internalType": "uint256",
              "name": "reserveB",
              "type": "uint256"
            }
          ],
          "stateMutability": "view",
          "type": "function"
        },
        {
          "inputs": [],
          "name": "name",
          "outputs": [
            {
              "internalType": "string",
              "name": "",
              "type": "string"
            }
          ],
          "stateMutability": "view",
          "type": "function"
        },
        {
          "inputs": [],
          "name": "owner",
          "outputs": [
            {
              "internalType": "address",
              "name": "",
              "type": "address"
            }
          ],
          "stateMutability": "view",
          "type": "function"
        },
        {
          "inputs": [
            {
              "internalType": "address",
              "name": "tokenA",
              "type": "address"
            },
            {
              "internalType": "address",
              "name": "tokenB",
              "type": "address"
            },
            {
              "internalType": "uint256",
              "name": "liquidity",
              "type": "uint256"
            },
            {
              "internalType": "uint256",
              "name": "amountAMin",
              "type": "uint256"
            },
            {
              "internalType": "uint256",
              "name": "amountBMin",
              "type": "uint256"
            },
            {
              "internalType": "address",
              "name": "to",
              "type": "address"
            },
            {
              "internalType": "uint256",
              "name": "deadline",
              "type": "uint256"
            }
          ],
          "name": "removeLiquidity",
          "outputs": [
            {
              "internalType": "uint256",
              "name": "amountA",
              "type": "uint256"
            },
            {
              "internalType": "uint256",
              "name": "amountB",
              "type": "uint256"
            }
          ],
          "stateMutability": "nonpayable",
          "type": "function"
        },
        {
          "inputs": [],
          "name": "renounceOwnership",
          "outputs": [],
          "stateMutability": "nonpayable",
          "type": "function"
        },
        {
          "inputs": [
            {
              "internalType": "uint256",
              "name": "amountIn",
              "type": "uint256"
            },
            {
              "internalType": "uint256",
              "name": "amountOutMin",
              "type": "uint256"
            },
            {
              "internalType": "address[]",
              "name": "path",
              "type": "address[]"
            },
            {
              "internalType": "address",
              "name": "to",
              "type": "address"
            },
            {
              "internalType": "uint256",
              "name": "deadline",
              "type": "uint256"
            }
          ],
          "name": "swapExactTokensForTokens",
          "outputs": [],
          "stateMutability": "nonpayable",
          "type": "function"
        },
        {
          "inputs": [],
          "name": "symbol",
          "outputs": [
            {
              "internalType": "string",
              "name": "",
              "type": "string"
            }
          ],
          "stateMutability": "view",
          "type": "function"
        },
        {
          "inputs": [],
          "name": "totalSupply",
          "outputs": [
            {
              "internalType": "uint256",
              "name": "",
              "type": "uint256"
            }
          ],
          "stateMutability": "view",
          "type": "function"
        },
        {
          "inputs": [
            {
              "internalType": "address",
              "name": "to",
              "type": "address"
            },
            {
              "internalType": "uint256",
              "name": "value",
              "type": "uint256"
            }
          ],
          "name": "transfer",
          "outputs": [
            {
              "internalType": "bool",
              "name": "",
              "type": "bool"
            }
          ],
          "stateMutability": "nonpayable",
          "type": "function"
        },
        {
          "inputs": [
            {
              "internalType": "address",
              "name": "from",
              "type": "address"
            },
            {
              "internalType": "address",
              "name": "to",
              "type": "address"
            },
            {
              "internalType": "uint256",
              "name": "value",
              "type": "uint256"
            }
          ],
          "name": "transferFrom",
          "outputs": [
            {
              "internalType": "bool",
              "name": "",
              "type": "bool"
            }
          ],
          "stateMutability": "nonpayable",
          "type": "function"
        },
        {
          "inputs": [
            {
              "internalType": "address",
              "name": "newOwner",
              "type": "address"
            }
          ],
          "name": "transferOwnership",
          "outputs": [],
          "stateMutability": "nonpayable",
          "type": "function"
        }
      ],
      "evm": {
        "bytecode": {
          "linkReferences": {},
          "object": "60806040523461038557604080519081016001600160401b0381118282101761029057604090815260078252660546f6b656e4c560cc1b602083015280519081016001600160401b038111828210176102905760405260038152620544c560ec1b602082015281516001600160401b03811161029057600354600181811c9116801561037b575b602082101461027057601f8111610316575b50602092601f82116001146102b157928192936000926102a6575b50508160011b916000199060031b1c1916176003555b80516001600160401b03811161029057600454600181811c91168015610286575b602082101461027057601f811161020b575b50602091601f82116001146101a75791819260009261019c575b50508160011b916000199060031b1c1916176004555b33156101865760058054336001600160a01b03198216811790925560405191906001600160a01b03167f8be0079c531659141344cd1fd0a4f28419497f9722a3daafe3b4186f6b6457e0600080a3611581908161038b8239f35b631e4fbdf760e01b600052600060045260246000fd5b015190503880610116565b601f198216926004600052806000209160005b8581106101f3575083600195106101da575b505050811b0160045561012c565b015160001960f88460031b161c191690553880806101cc565b919260206001819286850151815501940192016101ba565b60046000527f8a35acfbc15ff81a39ae7d344fd709f28e8600b4aa8c65c6b64bfe7fe36bd19b601f830160051c81019160208410610266575b601f0160051c01905b81811061025a57506100fc565b6000815560010161024d565b9091508190610244565b634e487b7160e01b600052602260045260246000fd5b90607f16906100ea565b634e487b7160e01b600052604160045260246000fd5b0151905038806100b3565b601f198216936003600052806000209160005b8681106102fe57508360019596106102e5575b505050811b016003556100c9565b015160001960f88460031b161c191690553880806102d7565b919260206001819286850151815501940192016102c4565b60036000527fc2575a0e9e593c00f959f8c92f12db2869c3395a3b0502d05e2516446f71f85b601f830160051c81019160208410610371575b601f0160051c01905b8181106103655750610098565b60008155600101610358565b909150819061034f565b90607f1690610086565b600080fdfe6080604052600436101561001257600080fd5b60003560e01c8063054d50d41461100b57806306fdde0314610f4c578063095ea7b314610ec657806318160ddd14610ea857806323b872dd14610dbb578063313ce56714610d9f57806338ed173914610ac457806370a0823114610a8a578063715018a614610a2d5780638da5cb5b14610a0457806395d89b4114610900578063a9059cbb146108cf578063ac41865a14610873578063baa2abde146105a1578063d52bb6f414610569578063dd62ed3e14610518578063e8e33700146101715763f2fde38b146100e257600080fd5b3461016c57602036600319011261016c576100fb611078565b610103611438565b6001600160a01b0316801561015657600580546001600160a01b0319811683179091556001600160a01b03167f8be0079c531659141344cd1fd0a4f28419497f9722a3daafe3b4186f6b6457e0600080a3005b631e4fbdf760e01b600052600060045260246000fd5b600080fd5b3461016c5761010036600319011261016c5761018b611078565b61019361108e565b60c4356001600160a01b038116929083900361016c576101b760e4354211156110dc565b60406101c38383611399565b6001600160a01b03918216600081815260066020908152858220938516825292909252929020805460018201805495929492909316918214929083156105125794925b61021c60a435608435606435604435888b6114dd565b6040516323b872dd60e01b815233600482015230602482015260448101839052909991989060208160648160008a5af180156104e9576104f5575b506040516323b872dd60e01b8152336004820152306024820152604481018b90526001600160a01b0391909116959060208160648160008b5af180156104e9576104bc575b508989828a600254801560001461046b57505050906102ba91611193565b600381111561045857808060011c6001810180911161044257905b8282106104235750505b965b87156103e55782156103cf576103b5988a948c946103018b600254611186565b600255600081815280602052604081208c81540190557fddf252ad1be2c89b69c2b068fc378daa952ba7f163c4a11628f55a4df523b3ef60208d604051908152a3156103b95761035b9461035491611186565b9055611186565b90555b60408051868152602081018890529081018490527f4a1a2a6176e9646d9e3157f7c2ab3c499f18337c0b0828cfb28e0a61de4a11f790606090a3604051938493846040919493926060820195825260208201520152565b0390f35b916103c8949361035491611186565b905561035e565b63ec442f0560e01b600052600060045260246000fd5b60405162461bcd60e51b8152602060048201526016602482015275496e73756666696369656e74206c697175696469747960501b6044820152606490fd5b9091506104398261043481846111a6565b611186565b60011c906102d5565b634e487b7160e01b600052601160045260246000fd5b156104645760016102df565b60006102df565b610496826104918361049c97610491961515806104b3575b61048c9061124c565b611193565b6111a6565b94611193565b808210156104ac57505b966102e1565b90506104a6565b50871515610483565b6104dd9060203d6020116104e2575b6104d581836110a4565b810190611161565b61029c565b503d6104cb565b6040513d6000823e3d90fd5b61050d9060203d6020116104e2576104d581836110a4565b610257565b92610206565b3461016c57604036600319011261016c57610531611078565b61053961108e565b6001600160a01b039182166000908152600160209081526040808320949093168252928352819020549051908152f35b3461016c57604036600319011261016c576040610595610587611078565b61058f61108e565b90611461565b82519182526020820152f35b3461016c5760e036600319011261016c576105ba611078565b6105c261108e565b6044359060a4356001600160a01b038116810361016c576105e760c4354211156110dc565b6040600254936105f78487611399565b6001600160a01b03918216600081815260066020908152868220938516825292909252939020805460018201805490999093169485149290831561086d5790925b6106546106498a6104918589611193565b996104918688611193565b976106636064358b10156111c6565b6106716084358a1015611209565b33156108575760009033825281602052604082205487811061083c578790338452836020520360408320558660025403600255816040518881527fddf252ad1be2c89b69c2b068fc378daa952ba7f163c4a11628f55a4df523b3ef60203392a360405163a9059cbb60e01b81526001600160a01b038a166004820152602481018c9052602081604481868d5af180156108315761074993926020928d92610816575b5060405163a9059cbb60e01b81526001600160a01b039c8d1660048201526024810192909252909a169992839081906044820190565b0381848d5af190811561080a579460409c948c948c946107c899947fbc7d19d505c7ec4db83f3b51f19fb98c4c8a99922e7839d1ee608dfbee29501b9b99506107ed575b50156107d7576107a7946107a091611179565b9055611179565b90555b87519182918789846040919493926060820195825260208201520152565b0390a382519182526020820152f35b916107e694936107a091611179565b90556107aa565b6108059060203d6020116104e2576104d581836110a4565b61078d565b604051903d90823e3d90fd5b61082c90843d86116104e2576104d581836110a4565b610713565b6040513d85823e3d90fd5b63391434e360e21b8352336004526024526044879052606482fd5b634b637e8f60e11b600052600060045260246000fd5b92610638565b3461016c57604036600319011261016c5761088f610587611078565b61089a821515611126565b670de0b6b3a7640000810290808204670de0b6b3a76400001490151715610442576020916108c7916111a6565b604051908152f35b3461016c57604036600319011261016c576108f56108eb611078565b6024359033611300565b602060405160018152f35b3461016c57600036600319011261016c5760405160006004548060011c906001811680156109fa575b6020831081146109e6578285529081156109c25750600114610962575b6103b583610956818503826110a4565b6040519182918261102f565b91905060046000527f8a35acfbc15ff81a39ae7d344fd709f28e8600b4aa8c65c6b64bfe7fe36bd19b916000905b8082106109a857509091508101602001610956610946565b919260018160209254838588010152019101909291610990565b60ff191660208086019190915291151560051b840190910191506109569050610946565b634e487b7160e01b84526022600452602484fd5b91607f1691610929565b3461016c57600036600319011261016c576005546040516001600160a01b039091168152602090f35b3461016c57600036600319011261016c57610a46611438565b600580546001600160a01b031981169091556000906001600160a01b03167f8be0079c531659141344cd1fd0a4f28419497f9722a3daafe3b4186f6b6457e08280a3005b3461016c57602036600319011261016c576001600160a01b03610aab611078565b1660005260006020526020604060002054604051908152f35b3461016c5760a036600319011261016c5760043560443567ffffffffffffffff811161016c573660238201121561016c5780600401359067ffffffffffffffff821161016c573660248360051b8301011161016c576064356001600160a01b0381169390929084840361016c57610b3f6084354211156110dc565b60028203610d6b578115610d5557610b5960248401611112565b9160011015610d5557610b70604460409401611112565b90610b7b8284611399565b6001600160a01b0391821660008181526006602090815288822093851682529290925295902080546001820180549690931696871494919291908515610d4f5795925b86151580610d46575b610bd090611126565b610bdb84888761128b565b936024358510610d0b576040516323b872dd60e01b81523360048201523060248201526044810187905260208160648160008e5af180156104e957610c61946020928892610cf0575b5060405163a9059cbb60e01b81526001600160a01b039d8e1660048201526024810192909252909b169a9384908c90829060009082906044820190565b03925af19182156104e9577fb39c9bc43f811e1a7ce159c5f147458fdb80266bf23c17322013316e27e086d09860409888958895610cd3575b5015610cbd57610cad946107a091611186565b90555b82519182526020820152a4005b91610ccc949361035491611179565b9055610cb0565b610ceb9060203d6020116104e2576104d581836110a4565b610c9a565b610d0690843d86116104e2576104d581836110a4565b610c24565b60405162461bcd60e51b8152602060048201526013602482015272125b9cdd59999a58da595b9d081bdd5d1c1d5d606a1b6044820152606490fd5b50831515610bc7565b92610bbe565b634e487b7160e01b600052603260045260246000fd5b60405162461bcd60e51b815260206004820152600c60248201526b092dcecc2d8d2c840e0c2e8d60a31b6044820152606490fd5b3461016c57600036600319011261016c57602060405160128152f35b3461016c57606036600319011261016c57610dd4611078565b610ddc61108e565b6001600160a01b0382166000818152600160209081526040808320338452909152902054909260443592916000198110610e1c575b506108f59350611300565b838110610e8b578415610e75573315610e5f576108f5946000526001602052604060002060018060a01b0333166000526020528360406000209103905584610e11565b634a1406b160e11b600052600060045260246000fd5b63e602df0560e01b600052600060045260246000fd5b8390637dc7a0d960e11b6000523360045260245260445260646000fd5b3461016c57600036600319011261016c576020600254604051908152f35b3461016c57604036600319011261016c57610edf611078565b602435903315610e75576001600160a01b0316908115610e5f57336000526001602052604060002082600052602052806040600020556040519081527f8c5be1e5ebec7d5bd14f71427d1e84f3dd0314c0f7b2291e5b200ac8c7c3b92560203392a3602060405160018152f35b3461016c57600036600319011261016c5760405160006003548060011c90600181168015611001575b6020831081146109e6578285529081156109c25750600114610fa1576103b583610956818503826110a4565b91905060036000527fc2575a0e9e593c00f959f8c92f12db2869c3395a3b0502d05e2516446f71f85b916000905b808210610fe757509091508101602001610956610946565b919260018160209254838588010152019101909291610fcf565b91607f1691610f75565b3461016c57606036600319011261016c5760206108c760443560243560043561128b565b91909160208152825180602083015260005b818110611062575060409293506000838284010152601f8019910116010190565b8060208092870101516040828601015201611041565b600435906001600160a01b038216820361016c57565b602435906001600160a01b038216820361016c57565b90601f8019910116810190811067ffffffffffffffff8211176110c657604052565b634e487b7160e01b600052604160045260246000fd5b156110e357565b60405162461bcd60e51b8152602060048201526007602482015266115e1c1a5c995960ca1b6044820152606490fd5b356001600160a01b038116810361016c5790565b1561112d57565b60405162461bcd60e51b815260206004820152600c60248201526b4e6f206c697175696469747960a01b6044820152606490fd5b9081602091031261016c5751801515810361016c5790565b9190820391821161044257565b9190820180921161044257565b8181029291811591840414171561044257565b81156111b0570490565b634e487b7160e01b600052601260045260246000fd5b156111cd57565b60405162461bcd60e51b8152602060048201526014602482015273496e73756666696369656e7420616d6f756e744160601b6044820152606490fd5b1561121057565b60405162461bcd60e51b815260206004820152601460248201527324b739bab33334b1b4b2b73a1030b6b7bab73a2160611b6044820152606490fd5b1561125357565b60405162461bcd60e51b815260206004820152601060248201526f496e76616c696420726573657276657360801b6044820152606490fd5b9182156112cd576112c1926112b56112bb92841515806112c4575b6112af9061124c565b82611193565b92611186565b906111a6565b90565b508015156112a6565b60405162461bcd60e51b815260206004820152600b60248201526a16995c9bc8185b5bdd5b9d60aa1b6044820152606490fd5b6001600160a01b0316908115610857576001600160a01b03169182156103cf57600082815280602052604081205482811061137f5791604082827fddf252ad1be2c89b69c2b068fc378daa952ba7f163c4a11628f55a4df523b3ef958760209652828652038282205586815280845220818154019055604051908152a3565b916064928463391434e360e21b8452600452602452604452fd5b6001600160a01b0382811690821680821461140657801515806113fd575b156113c95710156113c55791565b9091565b60405162461bcd60e51b815260206004820152600c60248201526b5a65726f206164647265737360a01b6044820152606490fd5b508115156113b7565b60405162461bcd60e51b815260206004820152600a60248201526929b0b6b2903a37b5b2b760b11b6044820152606490fd5b6005546001600160a01b0316330361144c57565b63118cdaa760e01b6000523360045260246000fd5b9061146c9082611399565b9060018060a01b03169081600052600660205260406000209060018060a01b031660005260205260406000209060405192604084019380851067ffffffffffffffff8611176110c65760209460405260018454948583520154948591015260018060a01b0316146000146113c55791565b919594909295821580611543575b61153a576114fd836104918684611193565b9187831115611527575050506115239161049161151a9287611193565b918210156111c6565b9190565b9250935080955061152392501015611209565b93505050509190565b5083156114eb56fea2646970667358221220637478fdd1e6290b06306a3e4c671302ce4d48c92c1284c3fb95730661fb36fd64736f6c634300081c0033",
          "opcodes": "PUSH1 0x80 PUSH1 0x40 MSTORE CALLVALUE PUSH2 0x385 JUMPI PUSH1 0x40 DUP1 MLOAD SWAP1 DUP2 ADD PUSH1 0x1 PUSH1 0x1 PUSH1 0x40 SHL SUB DUP2 GT DUP3 DUP3 LT OR PUSH2 0x290 JUMPI PUSH1 0x40 SWAP1 DUP2 MSTORE PUSH1 0x7 DUP3 MSTORE PUSH7 0x546F6B656E4C5 PUSH1 0xCC SHL PUSH1 0x20 DUP4 ADD MSTORE DUP1 MLOAD SWAP1 DUP2 ADD PUSH1 0x1 PUSH1 0x1 PUSH1 0x40 SHL SUB DUP2 GT DUP3 DUP3 LT OR PUSH2 0x290 JUMPI PUSH1 0x40 MSTORE PUSH1 0x3 DUP2 MSTORE PUSH3 0x544C5 PUSH1 0xEC SHL PUSH1 0x20 DUP3 ADD MSTORE DUP2 MLOAD PUSH1 0x1 PUSH1 0x1 PUSH1 0x40 SHL SUB DUP2 GT PUSH2 0x290 JUMPI PUSH1 0x3 SLOAD PUSH1 0x1 DUP2 DUP2 SHR SWAP2 AND DUP1 ISZERO PUSH2 0x37B JUMPI JUMPDEST PUSH1 0x20 DUP3 LT EQ PUSH2 0x270 JUMPI PUSH1 0x1F DUP2 GT PUSH2 0x316 JUMPI JUMPDEST POP PUSH1 0x20 SWAP3 PUSH1 0x1F DUP3 GT PUSH1 0x1 EQ PUSH2 0x2B1 JUMPI SWAP3 DUP2 SWAP3 SWAP4 PUSH1 0x0 SWAP3 PUSH2 0x2A6 JUMPI JUMPDEST POP POP DUP2 PUSH1 0x1 SHL SWAP2 PUSH1 0x0 NOT SWAP1 PUSH1 0x3 SHL SHR NOT AND OR PUSH1 0x3 SSTORE JUMPDEST DUP1 MLOAD PUSH1 0x1 PUSH1 0x1 PUSH1 0x40 SHL SUB DUP2 GT PUSH2 0x290 JUMPI PUSH1 0x4 SLOAD PUSH1 0x1 DUP2 DUP2 SHR SWAP2 AND DUP1 ISZERO PUSH2 0x286 JUMPI JUMPDEST PUSH1 0x20 DUP3 LT EQ PUSH2 0x270 JUMPI PUSH1 0x1F DUP2 GT PUSH2 0x20B JUMPI JUMPDEST POP PUSH1 0x20 SWAP2 PUSH1 0x1F DUP3 GT PUSH1 0x1 EQ PUSH2 0x1A7 JUMPI SWAP2 DUP2 SWAP3 PUSH1 0x0 SWAP3 PUSH2 0x19C JUMPI JUMPDEST POP POP DUP2 PUSH1 0x1 SHL SWAP2 PUSH1 0x0 NOT SWAP1 PUSH1 0x3 SHL SHR NOT AND OR PUSH1 0x4 SSTORE JUMPDEST CALLER ISZERO PUSH2 0x186 JUMPI PUSH1 0x5 DUP1 SLOAD CALLER PUSH1 0x1 PUSH1 0x1 PUSH1 0xA0 SHL SUB NOT DUP3 AND DUP2 OR SWAP1 SWAP3 SSTORE PUSH1 0x40 MLOAD SWAP2 SWAP1 PUSH1 0x1 PUSH1 0x1 PUSH1 0xA0 SHL SUB AND PUSH32 0x8BE0079C531659141344CD1FD0A4F28419497F9722A3DAAFE3B4186F6B6457E0 PUSH1 0x0 DUP1 LOG3 PUSH2 0x1581 SWAP1 DUP2 PUSH2 0x38B DUP3 CODECOPY RETURN JUMPDEST PUSH4 0x1E4FBDF7 PUSH1 0xE0 SHL PUSH1 0x0 MSTORE PUSH1 0x0 PUSH1 0x4 MSTORE PUSH1 0x24 PUSH1 0x0 REVERT JUMPDEST ADD MLOAD SWAP1 POP CODESIZE DUP1 PUSH2 0x116 JUMP JUMPDEST PUSH1 0x1F NOT DUP3 AND SWAP3 PUSH1 0x4 PUSH1 0x0 MSTORE DUP1 PUSH1 0x0 KECCAK256 SWAP2 PUSH1 0x0 JUMPDEST DUP6 DUP2 LT PUSH2 0x1F3 JUMPI POP DUP4 PUSH1 0x1 SWAP6 LT PUSH2 0x1DA JUMPI JUMPDEST POP POP POP DUP2 SHL ADD PUSH1 0x4 SSTORE PUSH2 0x12C JUMP JUMPDEST ADD MLOAD PUSH1 0x0 NOT PUSH1 0xF8 DUP5 PUSH1 0x3 SHL AND SHR NOT AND SWAP1 SSTORE CODESIZE DUP1 DUP1 PUSH2 0x1CC JUMP JUMPDEST SWAP2 SWAP3 PUSH1 0x20 PUSH1 0x1 DUP2 SWAP3 DUP7 DUP6 ADD MLOAD DUP2 SSTORE ADD SWAP5 ADD SWAP3 ADD PUSH2 0x1BA JUMP JUMPDEST PUSH1 0x4 PUSH1 0x0 MSTORE PUSH32 0x8A35ACFBC15FF81A39AE7D344FD709F28E8600B4AA8C65C6B64BFE7FE36BD19B PUSH1 0x1F DUP4 ADD PUSH1 0x5 SHR DUP2 ADD SWAP2 PUSH1 0x20 DUP5 LT PUSH2 0x266 JUMPI JUMPDEST PUSH1 0x1F ADD PUSH1 0x5 SHR ADD SWAP1 JUMPDEST DUP2 DUP2 LT PUSH2 0x25A JUMPI POP PUSH2 0xFC JUMP JUMPDEST PUSH1 0x0 DUP2 SSTORE PUSH1 0x1 ADD PUSH2 0x24D JUMP JUMPDEST SWAP1 SWAP2 POP DUP2 SWAP1 PUSH2 0x244 JUMP JUMPDEST PUSH4 0x4E487B71 PUSH1 0xE0 SHL PUSH1 0x0 MSTORE PUSH1 0x22 PUSH1 0x4 MSTORE PUSH1 0x24 PUSH1 0x0 REVERT JUMPDEST SWAP1 PUSH1 0x7F AND SWAP1 PUSH2 0xEA JUMP JUMPDEST PUSH4 0x4E487B71 PUSH1 0xE0 SHL PUSH1 0x0 MSTORE PUSH1 0x41 PUSH1 0x4 MSTORE PUSH1 0x24 PUSH1 0x0 REVERT JUMPDEST ADD MLOAD SWAP1 POP CODESIZE DUP1 PUSH2 0xB3 JUMP JUMPDEST PUSH1 0x1F NOT DUP3 AND SWAP4 PUSH1 0x3 PUSH1 0x0 MSTORE DUP1 PUSH1 0x0 KECCAK256 SWAP2 PUSH1 0x0 JUMPDEST DUP7 DUP2 LT PUSH2 0x2FE JUMPI POP DUP4 PUSH1 0x1 SWAP6 SWAP7 LT PUSH2 0x2E5 JUMPI JUMPDEST POP POP POP DUP2 SHL ADD PUSH1 0x3 SSTORE PUSH2 0xC9 JUMP JUMPDEST ADD MLOAD PUSH1 0x0 NOT PUSH1 0xF8 DUP5 PUSH1 0x3 SHL AND SHR NOT AND SWAP1 SSTORE CODESIZE DUP1 DUP1 PUSH2 0x2D7 JUMP JUMPDEST SWAP2 SWAP3 PUSH1 0x20 PUSH1 0x1 DUP2 SWAP3 DUP7 DUP6 ADD MLOAD DUP2 SSTORE ADD SWAP5 ADD SWAP3 ADD PUSH2 0x2C4 JUMP JUMPDEST PUSH1 0x3 PUSH1 0x0 MSTORE PUSH32 0xC2575A0E9E593C00F959F8C92F12DB2869C3395A3B0502D05E2516446F71F85B PUSH1 0x1F DUP4 ADD PUSH1 0x5 SHR DUP2 ADD SWAP2 PUSH1 0x20 DUP5 LT PUSH2 0x371 JUMPI JUMPDEST PUSH1 0x1F ADD PUSH1 0x5 SHR ADD SWAP1 JUMPDEST DUP2 DUP2 LT PUSH2 0x365 JUMPI POP PUSH2 0x98 JUMP JUMPDEST PUSH1 0x0 DUP2 SSTORE PUSH1 0x1 ADD PUSH2 0x358 JUMP JUMPDEST SWAP1 SWAP2 POP DUP2 SWAP1 PUSH2 0x34F JUMP JUMPDEST SWAP1 PUSH1 0x7F AND SWAP1 PUSH2 0x86 JUMP JUMPDEST PUSH1 0x0 DUP1 REVERT INVALID PUSH1 0x80 PUSH1 0x40 MSTORE PUSH1 0x4 CALLDATASIZE LT ISZERO PUSH2 0x12 JUMPI PUSH1 0x0 DUP1 REVERT JUMPDEST PUSH1 0x0 CALLDATALOAD PUSH1 0xE0 SHR DUP1 PUSH4 0x54D50D4 EQ PUSH2 0x100B JUMPI DUP1 PUSH4 0x6FDDE03 EQ PUSH2 0xF4C JUMPI DUP1 PUSH4 0x95EA7B3 EQ PUSH2 0xEC6 JUMPI DUP1 PUSH4 0x18160DDD EQ PUSH2 0xEA8 JUMPI DUP1 PUSH4 0x23B872DD EQ PUSH2 0xDBB JUMPI DUP1 PUSH4 0x313CE567 EQ PUSH2 0xD9F JUMPI DUP1 PUSH4 0x38ED1739 EQ PUSH2 0xAC4 JUMPI DUP1 PUSH4 0x70A08231 EQ PUSH2 0xA8A JUMPI DUP1 PUSH4 0x715018A6 EQ PUSH2 0xA2D JUMPI DUP1 PUSH4 0x8DA5CB5B EQ PUSH2 0xA04 JUMPI DUP1 PUSH4 0x95D89B41 EQ PUSH2 0x900 JUMPI DUP1 PUSH4 0xA9059CBB EQ PUSH2 0x8CF JUMPI DUP1 PUSH4 0xAC41865A EQ PUSH2 0x873 JUMPI DUP1 PUSH4 0xBAA2ABDE EQ PUSH2 0x5A1 JUMPI DUP1 PUSH4 0xD52BB6F4 EQ PUSH2 0x569 JUMPI DUP1 PUSH4 0xDD62ED3E EQ PUSH2 0x518 JUMPI DUP1 PUSH4 0xE8E33700 EQ PUSH2 0x171 JUMPI PUSH4 0xF2FDE38B EQ PUSH2 0xE2 JUMPI PUSH1 0x0 DUP1 REVERT JUMPDEST CALLVALUE PUSH2 0x16C JUMPI PUSH1 0x20 CALLDATASIZE PUSH1 0x3 NOT ADD SLT PUSH2 0x16C JUMPI PUSH2 0xFB PUSH2 0x1078 JUMP JUMPDEST PUSH2 0x103 PUSH2 0x1438 JUMP JUMPDEST PUSH1 0x1 PUSH1 0x1 PUSH1 0xA0 SHL SUB AND DUP1 ISZERO PUSH2 0x156 JUMPI PUSH1 0x5 DUP1 SLOAD PUSH1 0x1 PUSH1 0x1 PUSH1 0xA0 SHL SUB NOT DUP2 AND DUP4 OR SWAP1 SWAP2 SSTORE PUSH1 0x1 PUSH1 0x1 PUSH1 0xA0 SHL SUB AND PUSH32 0x8BE0079C531659141344CD1FD0A4F28419497F9722A3DAAFE3B4186F6B6457E0 PUSH1 0x0 DUP1 LOG3 STOP JUMPDEST PUSH4 0x1E4FBDF7 PUSH1 0xE0 SHL PUSH1 0x0 MSTORE PUSH1 0x0 PUSH1 0x4 MSTORE PUSH1 0x24 PUSH1 0x0 REVERT JUMPDEST PUSH1 0x0 DUP1 REVERT JUMPDEST CALLVALUE PUSH2 0x16C JUMPI PUSH2 0x100 CALLDATASIZE PUSH1 0x3 NOT ADD SLT PUSH2 0x16C JUMPI PUSH2 0x18B PUSH2 0x1078 JUMP JUMPDEST PUSH2 0x193 PUSH2 0x108E JUMP JUMPDEST PUSH1 0xC4 CALLDATALOAD PUSH1 0x1 PUSH1 0x1 PUSH1 0xA0 SHL SUB DUP2 AND SWAP3 SWAP1 DUP4 SWAP1 SUB PUSH2 0x16C JUMPI PUSH2 0x1B7 PUSH1 0xE4 CALLDATALOAD TIMESTAMP GT ISZERO PUSH2 0x10DC JUMP JUMPDEST PUSH1 0x40 PUSH2 0x1C3 DUP4 DUP4 PUSH2 0x1399 JUMP JUMPDEST PUSH1 0x1 PUSH1 0x1 PUSH1 0xA0 SHL SUB SWAP2 DUP3 AND PUSH1 0x0 DUP2 DUP2 MSTORE PUSH1 0x6 PUSH1 0x20 SWAP1 DUP2 MSTORE DUP6 DUP3 KECCAK256 SWAP4 DUP6 AND DUP3 MSTORE SWAP3 SWAP1 SWAP3 MSTORE SWAP3 SWAP1 KECCAK256 DUP1 SLOAD PUSH1 0x1 DUP3 ADD DUP1 SLOAD SWAP6 SWAP3 SWAP5 SWAP3 SWAP1 SWAP4 AND SWAP2 DUP3 EQ SWAP3 SWAP1 DUP4 ISZERO PUSH2 0x512 JUMPI SWAP5 SWAP3 JUMPDEST PUSH2 0x21C PUSH1 0xA4 CALLDATALOAD PUSH1 0x84 CALLDATALOAD PUSH1 0x64 CALLDATALOAD PUSH1 0x44 CALLDATALOAD DUP9 DUP12 PUSH2 0x14DD JUMP JUMPDEST PUSH1 0x40 MLOAD PUSH4 0x23B872DD PUSH1 0xE0 SHL DUP2 MSTORE CALLER PUSH1 0x4 DUP3 ADD MSTORE ADDRESS PUSH1 0x24 DUP3 ADD MSTORE PUSH1 0x44 DUP2 ADD DUP4 SWAP1 MSTORE SWAP1 SWAP10 SWAP2 SWAP9 SWAP1 PUSH1 0x20 DUP2 PUSH1 0x64 DUP2 PUSH1 0x0 DUP11 GAS CALL DUP1 ISZERO PUSH2 0x4E9 JUMPI PUSH2 0x4F5 JUMPI JUMPDEST POP PUSH1 0x40 MLOAD PUSH4 0x23B872DD PUSH1 0xE0 SHL DUP2 MSTORE CALLER PUSH1 0x4 DUP3 ADD MSTORE ADDRESS PUSH1 0x24 DUP3 ADD MSTORE PUSH1 0x44 DUP2 ADD DUP12 SWAP1 MSTORE PUSH1 0x1 PUSH1 0x1 PUSH1 0xA0 SHL SUB SWAP2 SWAP1 SWAP2 AND SWAP6 SWAP1 PUSH1 0x20 DUP2 PUSH1 0x64 DUP2 PUSH1 0x0 DUP12 GAS CALL DUP1 ISZERO PUSH2 0x4E9 JUMPI PUSH2 0x4BC JUMPI JUMPDEST POP DUP10 DUP10 DUP3 DUP11 PUSH1 0x2 SLOAD DUP1 ISZERO PUSH1 0x0 EQ PUSH2 0x46B JUMPI POP POP POP SWAP1 PUSH2 0x2BA SWAP2 PUSH2 0x1193 JUMP JUMPDEST PUSH1 0x3 DUP2 GT ISZERO PUSH2 0x458 JUMPI DUP1 DUP1 PUSH1 0x1 SHR PUSH1 0x1 DUP2 ADD DUP1 SWAP2 GT PUSH2 0x442 JUMPI SWAP1 JUMPDEST DUP3 DUP3 LT PUSH2 0x423 JUMPI POP POP JUMPDEST SWAP7 JUMPDEST DUP8 ISZERO PUSH2 0x3E5 JUMPI DUP3 ISZERO PUSH2 0x3CF JUMPI PUSH2 0x3B5 SWAP9 DUP11 SWAP5 DUP13 SWAP5 PUSH2 0x301 DUP12 PUSH1 0x2 SLOAD PUSH2 0x1186 JUMP JUMPDEST PUSH1 0x2 SSTORE PUSH1 0x0 DUP2 DUP2 MSTORE DUP1 PUSH1 0x20 MSTORE PUSH1 0x40 DUP2 KECCAK256 DUP13 DUP2 SLOAD ADD SWAP1 SSTORE PUSH32 0xDDF252AD1BE2C89B69C2B068FC378DAA952BA7F163C4A11628F55A4DF523B3EF PUSH1 0x20 DUP14 PUSH1 0x40 MLOAD SWAP1 DUP2 MSTORE LOG3 ISZERO PUSH2 0x3B9 JUMPI PUSH2 0x35B SWAP5 PUSH2 0x354 SWAP2 PUSH2 0x1186 JUMP JUMPDEST SWAP1 SSTORE PUSH2 0x1186 JUMP JUMPDEST SWAP1 SSTORE JUMPDEST PUSH1 0x40 DUP1 MLOAD DUP7 DUP2 MSTORE PUSH1 0x20 DUP2 ADD DUP9 SWAP1 MSTORE SWAP1 DUP2 ADD DUP5 SWAP1 MSTORE PUSH32 0x4A1A2A6176E9646D9E3157F7C2AB3C499F18337C0B0828CFB28E0A61DE4A11F7 SWAP1 PUSH1 0x60 SWAP1 LOG3 PUSH1 0x40 MLOAD SWAP4 DUP5 SWAP4 DUP5 PUSH1 0x40 SWAP2 SWAP5 SWAP4 SWAP3 PUSH1 0x60 DUP3 ADD SWAP6 DUP3 MSTORE PUSH1 0x20 DUP3 ADD MSTORE ADD MSTORE JUMP JUMPDEST SUB SWAP1 RETURN JUMPDEST SWAP2 PUSH2 0x3C8 SWAP5 SWAP4 PUSH2 0x354 SWAP2 PUSH2 0x1186 JUMP JUMPDEST SWAP1 SSTORE PUSH2 0x35E JUMP JUMPDEST PUSH4 0xEC442F05 PUSH1 0xE0 SHL PUSH1 0x0 MSTORE PUSH1 0x0 PUSH1 0x4 MSTORE PUSH1 0x24 PUSH1 0x0 REVERT JUMPDEST PUSH1 0x40 MLOAD PUSH3 0x461BCD PUSH1 0xE5 SHL DUP2 MSTORE PUSH1 0x20 PUSH1 0x4 DUP3 ADD MSTORE PUSH1 0x16 PUSH1 0x24 DUP3 ADD MSTORE PUSH22 0x496E73756666696369656E74206C6971756964697479 PUSH1 0x50 SHL PUSH1 0x44 DUP3 ADD MSTORE PUSH1 0x64 SWAP1 REVERT JUMPDEST SWAP1 SWAP2 POP PUSH2 0x439 DUP3 PUSH2 0x434 DUP2 DUP5 PUSH2 0x11A6 JUMP JUMPDEST PUSH2 0x1186 JUMP JUMPDEST PUSH1 0x1 SHR SWAP1 PUSH2 0x2D5 JUMP JUMPDEST PUSH4 0x4E487B71 PUSH1 0xE0 SHL PUSH1 0x0 MSTORE PUSH1 0x11 PUSH1 0x4 MSTORE PUSH1 0x24 PUSH1 0x0 REVERT JUMPDEST ISZERO PUSH2 0x464 JUMPI PUSH1 0x1 PUSH2 0x2DF JUMP JUMPDEST PUSH1 0x0 PUSH2 0x2DF JUMP JUMPDEST PUSH2 0x496 DUP3 PUSH2 0x491 DUP4 PUSH2 0x49C SWAP8 PUSH2 0x491 SWAP7 ISZERO ISZERO DUP1 PUSH2 0x4B3 JUMPI JUMPDEST PUSH2 0x48C SWAP1 PUSH2 0x124C JUMP JUMPDEST PUSH2 0x1193 JUMP JUMPDEST PUSH2 0x11A6 JUMP JUMPDEST SWAP5 PUSH2 0x1193 JUMP JUMPDEST DUP1 DUP3 LT ISZERO PUSH2 0x4AC JUMPI POP JUMPDEST SWAP7 PUSH2 0x2E1 JUMP JUMPDEST SWAP1 POP PUSH2 0x4A6 JUMP JUMPDEST POP DUP8 ISZERO ISZERO PUSH2 0x483 JUMP JUMPDEST PUSH2 0x4DD SWAP1 PUSH1 0x20 RETURNDATASIZE PUSH1 0x20 GT PUSH2 0x4E2 JUMPI JUMPDEST PUSH2 0x4D5 DUP2 DUP4 PUSH2 0x10A4 JUMP JUMPDEST DUP2 ADD SWAP1 PUSH2 0x1161 JUMP JUMPDEST PUSH2 0x29C JUMP JUMPDEST POP RETURNDATASIZE PUSH2 0x4CB JUMP JUMPDEST PUSH1 0x40 MLOAD RETURNDATASIZE PUSH1 0x0 DUP3 RETURNDATACOPY RETURNDATASIZE SWAP1 REVERT JUMPDEST PUSH2 0x50D SWAP1 PUSH1 0x20 RETURNDATASIZE PUSH1 0x20 GT PUSH2 0x4E2 JUMPI PUSH2 0x4D5 DUP2 DUP4 PUSH2 0x10A4 JUMP JUMPDEST PUSH2 0x257 JUMP JUMPDEST SWAP3 PUSH2 0x206 JUMP JUMPDEST CALLVALUE PUSH2 0x16C JUMPI PUSH1 0x40 CALLDATASIZE PUSH1 0x3 NOT ADD SLT PUSH2 0x16C JUMPI PUSH2 0x531 PUSH2 0x1078 JUMP JUMPDEST PUSH2 0x539 PUSH2 0x108E JUMP JUMPDEST PUSH1 0x1 PUSH1 0x1 PUSH1 0xA0 SHL SUB SWAP2 DUP3 AND PUSH1 0x0 SWAP1 DUP2 MSTORE PUSH1 0x1 PUSH1 0x20 SWAP1 DUP2 MSTORE PUSH1 0x40 DUP1 DUP4 KECCAK256 SWAP5 SWAP1 SWAP4 AND DUP3 MSTORE SWAP3 DUP4 MSTORE DUP2 SWAP1 KECCAK256 SLOAD SWAP1 MLOAD SWAP1 DUP2 MSTORE RETURN JUMPDEST CALLVALUE PUSH2 0x16C JUMPI PUSH1 0x40 CALLDATASIZE PUSH1 0x3 NOT ADD SLT PUSH2 0x16C JUMPI PUSH1 0x40 PUSH2 0x595 PUSH2 0x587 PUSH2 0x1078 JUMP JUMPDEST PUSH2 0x58F PUSH2 0x108E JUMP JUMPDEST SWAP1 PUSH2 0x1461 JUMP JUMPDEST DUP3 MLOAD SWAP2 DUP3 MSTORE PUSH1 0x20 DUP3 ADD MSTORE RETURN JUMPDEST CALLVALUE PUSH2 0x16C JUMPI PUSH1 0xE0 CALLDATASIZE PUSH1 0x3 NOT ADD SLT PUSH2 0x16C JUMPI PUSH2 0x5BA PUSH2 0x1078 JUMP JUMPDEST PUSH2 0x5C2 PUSH2 0x108E JUMP JUMPDEST PUSH1 0x44 CALLDATALOAD SWAP1 PUSH1 0xA4 CALLDATALOAD PUSH1 0x1 PUSH1 0x1 PUSH1 0xA0 SHL SUB DUP2 AND DUP2 SUB PUSH2 0x16C JUMPI PUSH2 0x5E7 PUSH1 0xC4 CALLDATALOAD TIMESTAMP GT ISZERO PUSH2 0x10DC JUMP JUMPDEST PUSH1 0x40 PUSH1 0x2 SLOAD SWAP4 PUSH2 0x5F7 DUP5 DUP8 PUSH2 0x1399 JUMP JUMPDEST PUSH1 0x1 PUSH1 0x1 PUSH1 0xA0 SHL SUB SWAP2 DUP3 AND PUSH1 0x0 DUP2 DUP2 MSTORE PUSH1 0x6 PUSH1 0x20 SWAP1 DUP2 MSTORE DUP7 DUP3 KECCAK256 SWAP4 DUP6 AND DUP3 MSTORE SWAP3 SWAP1 SWAP3 MSTORE SWAP4 SWAP1 KECCAK256 DUP1 SLOAD PUSH1 0x1 DUP3 ADD DUP1 SLOAD SWAP1 SWAP10 SWAP1 SWAP4 AND SWAP5 DUP6 EQ SWAP3 SWAP1 DUP4 ISZERO PUSH2 0x86D JUMPI SWAP1 SWAP3 JUMPDEST PUSH2 0x654 PUSH2 0x649 DUP11 PUSH2 0x491 DUP6 DUP10 PUSH2 0x1193 JUMP JUMPDEST SWAP10 PUSH2 0x491 DUP7 DUP9 PUSH2 0x1193 JUMP JUMPDEST SWAP8 PUSH2 0x663 PUSH1 0x64 CALLDATALOAD DUP12 LT ISZERO PUSH2 0x11C6 JUMP JUMPDEST PUSH2 0x671 PUSH1 0x84 CALLDATALOAD DUP11 LT ISZERO PUSH2 0x1209 JUMP JUMPDEST CALLER ISZERO PUSH2 0x857 JUMPI PUSH1 0x0 SWAP1 CALLER DUP3 MSTORE DUP2 PUSH1 0x20 MSTORE PUSH1 0x40 DUP3 KECCAK256 SLOAD DUP8 DUP2 LT PUSH2 0x83C JUMPI DUP8 SWAP1 CALLER DUP5 MSTORE DUP4 PUSH1 0x20 MSTORE SUB PUSH1 0x40 DUP4 KECCAK256 SSTORE DUP7 PUSH1 0x2 SLOAD SUB PUSH1 0x2 SSTORE DUP2 PUSH1 0x40 MLOAD DUP9 DUP2 MSTORE PUSH32 0xDDF252AD1BE2C89B69C2B068FC378DAA952BA7F163C4A11628F55A4DF523B3EF PUSH1 0x20 CALLER SWAP3 LOG3 PUSH1 0x40 MLOAD PUSH4 0xA9059CBB PUSH1 0xE0 SHL DUP2 MSTORE PUSH1 0x1 PUSH1 0x1 PUSH1 0xA0 SHL SUB DUP11 AND PUSH1 0x4 DUP3 ADD MSTORE PUSH1 0x24 DUP2 ADD DUP13 SWAP1 MSTORE PUSH1 0x20 DUP2 PUSH1 0x44 DUP2 DUP7 DUP14 GAS CALL DUP1 ISZERO PUSH2 0x831 JUMPI PUSH2 0x749 SWAP4 SWAP3 PUSH1 0x20 SWAP3 DUP14 SWAP3 PUSH2 0x816 JUMPI JUMPDEST POP PUSH1 0x40 MLOAD PUSH4 0xA9059CBB PUSH1 0xE0 SHL DUP2 MSTORE PUSH1 0x1 PUSH1 0x1 PUSH1 0xA0 SHL SUB SWAP13 DUP14 AND PUSH1 0x4 DUP3 ADD MSTORE PUSH1 0x24 DUP2 ADD SWAP3 SWAP1 SWAP3 MSTORE SWAP1 SWAP11 AND SWAP10 SWAP3 DUP4 SWAP1 DUP2 SWAP1 PUSH1 0x44 DUP3 ADD SWAP1 JUMP JUMPDEST SUB DUP2 DUP5 DUP14 GAS CALL SWAP1 DUP2 ISZERO PUSH2 0x80A JUMPI SWAP5 PUSH1 0x40 SWAP13 SWAP5 DUP13 SWAP5 DUP13 SWAP5 PUSH2 0x7C8 SWAP10 SWAP5 PUSH32 0xBC7D19D505C7EC4DB83F3B51F19FB98C4C8A99922E7839D1EE608DFBEE29501B SWAP12 SWAP10 POP PUSH2 0x7ED JUMPI JUMPDEST POP ISZERO PUSH2 0x7D7 JUMPI PUSH2 0x7A7 SWAP5 PUSH2 0x7A0 SWAP2 PUSH2 0x1179 JUMP JUMPDEST SWAP1 SSTORE PUSH2 0x1179 JUMP JUMPDEST SWAP1 SSTORE JUMPDEST DUP8 MLOAD SWAP2 DUP3 SWAP2 DUP8 DUP10 DUP5 PUSH1 0x40 SWAP2 SWAP5 SWAP4 SWAP3 PUSH1 0x60 DUP3 ADD SWAP6 DUP3 MSTORE PUSH1 0x20 DUP3 ADD MSTORE ADD MSTORE JUMP JUMPDEST SUB SWAP1 LOG3 DUP3 MLOAD SWAP2 DUP3 MSTORE PUSH1 0x20 DUP3 ADD MSTORE RETURN JUMPDEST SWAP2 PUSH2 0x7E6 SWAP5 SWAP4 PUSH2 0x7A0 SWAP2 PUSH2 0x1179 JUMP JUMPDEST SWAP1 SSTORE PUSH2 0x7AA JUMP JUMPDEST PUSH2 0x805 SWAP1 PUSH1 0x20 RETURNDATASIZE PUSH1 0x20 GT PUSH2 0x4E2 JUMPI PUSH2 0x4D5 DUP2 DUP4 PUSH2 0x10A4 JUMP JUMPDEST PUSH2 0x78D JUMP JUMPDEST PUSH1 0x40 MLOAD SWAP1 RETURNDATASIZE SWAP1 DUP3 RETURNDATACOPY RETURNDATASIZE SWAP1 REVERT JUMPDEST PUSH2 0x82C SWAP1 DUP5 RETURNDATASIZE DUP7 GT PUSH2 0x4E2 JUMPI PUSH2 0x4D5 DUP2 DUP4 PUSH2 0x10A4 JUMP JUMPDEST PUSH2 0x713 JUMP JUMPDEST PUSH1 0x40 MLOAD RETURNDATASIZE DUP6 DUP3 RETURNDATACOPY RETURNDATASIZE SWAP1 REVERT JUMPDEST PUSH4 0x391434E3 PUSH1 0xE2 SHL DUP4 MSTORE CALLER PUSH1 0x4 MSTORE PUSH1 0x24 MSTORE PUSH1 0x44 DUP8 SWAP1 MSTORE PUSH1 0x64 DUP3 REVERT JUMPDEST PUSH4 0x4B637E8F PUSH1 0xE1 SHL PUSH1 0x0 MSTORE PUSH1 0x0 PUSH1 0x4 MSTORE PUSH1 0x24 PUSH1 0x0 REVERT JUMPDEST SWAP3 PUSH2 0x638 JUMP JUMPDEST CALLVALUE PUSH2 0x16C JUMPI PUSH1 0x40 CALLDATASIZE PUSH1 0x3 NOT ADD SLT PUSH2 0x16C JUMPI PUSH2 0x88F PUSH2 0x587 PUSH2 0x1078 JUMP JUMPDEST PUSH2 0x89A DUP3 ISZERO ISZERO PUSH2 0x1126 JUMP JUMPDEST PUSH8 0xDE0B6B3A7640000 DUP2 MUL SWAP1 DUP1 DUP3 DIV PUSH8 0xDE0B6B3A7640000 EQ SWAP1 ISZERO OR ISZERO PUSH2 0x442 JUMPI PUSH1 0x20 SWAP2 PUSH2 0x8C7 SWAP2 PUSH2 0x11A6 JUMP JUMPDEST PUSH1 0x40 MLOAD SWAP1 DUP2 MSTORE RETURN JUMPDEST CALLVALUE PUSH2 0x16C JUMPI PUSH1 0x40 CALLDATASIZE PUSH1 0x3 NOT ADD SLT PUSH2 0x16C JUMPI PUSH2 0x8F5 PUSH2 0x8EB PUSH2 0x1078 JUMP JUMPDEST PUSH1 0x24 CALLDATALOAD SWAP1 CALLER PUSH2 0x1300 JUMP JUMPDEST PUSH1 0x20 PUSH1 0x40 MLOAD PUSH1 0x1 DUP2 MSTORE RETURN JUMPDEST CALLVALUE PUSH2 0x16C JUMPI PUSH1 0x0 CALLDATASIZE PUSH1 0x3 NOT ADD SLT PUSH2 0x16C JUMPI PUSH1 0x40 MLOAD PUSH1 0x0 PUSH1 0x4 SLOAD DUP1 PUSH1 0x1 SHR SWAP1 PUSH1 0x1 DUP2 AND DUP1 ISZERO PUSH2 0x9FA JUMPI JUMPDEST PUSH1 0x20 DUP4 LT DUP2 EQ PUSH2 0x9E6 JUMPI DUP3 DUP6 MSTORE SWAP1 DUP2 ISZERO PUSH2 0x9C2 JUMPI POP PUSH1 0x1 EQ PUSH2 0x962 JUMPI JUMPDEST PUSH2 0x3B5 DUP4 PUSH2 0x956 DUP2 DUP6 SUB DUP3 PUSH2 0x10A4 JUMP JUMPDEST PUSH1 0x40 MLOAD SWAP2 DUP3 SWAP2 DUP3 PUSH2 0x102F JUMP JUMPDEST SWAP2 SWAP1 POP PUSH1 0x4 PUSH1 0x0 MSTORE PUSH32 0x8A35ACFBC15FF81A39AE7D344FD709F28E8600B4AA8C65C6B64BFE7FE36BD19B SWAP2 PUSH1 0x0 SWAP1 JUMPDEST DUP1 DUP3 LT PUSH2 0x9A8 JUMPI POP SWAP1 SWAP2 POP DUP2 ADD PUSH1 0x20 ADD PUSH2 0x956 PUSH2 0x946 JUMP JUMPDEST SWAP2 SWAP3 PUSH1 0x1 DUP2 PUSH1 0x20 SWAP3 SLOAD DUP4 DUP6 DUP9 ADD ADD MSTORE ADD SWAP2 ADD SWAP1 SWAP3 SWAP2 PUSH2 0x990 JUMP JUMPDEST PUSH1 0xFF NOT AND PUSH1 0x20 DUP1 DUP7 ADD SWAP2 SWAP1 SWAP2 MSTORE SWAP2 ISZERO ISZERO PUSH1 0x5 SHL DUP5 ADD SWAP1 SWAP2 ADD SWAP2 POP PUSH2 0x956 SWAP1 POP PUSH2 0x946 JUMP JUMPDEST PUSH4 0x4E487B71 PUSH1 0xE0 SHL DUP5 MSTORE PUSH1 0x22 PUSH1 0x4 MSTORE PUSH1 0x24 DUP5 REVERT JUMPDEST SWAP2 PUSH1 0x7F AND SWAP2 PUSH2 0x929 JUMP JUMPDEST CALLVALUE PUSH2 0x16C JUMPI PUSH1 0x0 CALLDATASIZE PUSH1 0x3 NOT ADD SLT PUSH2 0x16C JUMPI PUSH1 0x5 SLOAD PUSH1 0x40 MLOAD PUSH1 0x1 PUSH1 0x1 PUSH1 0xA0 SHL SUB SWAP1 SWAP2 AND DUP2 MSTORE PUSH1 0x20 SWAP1 RETURN JUMPDEST CALLVALUE PUSH2 0x16C JUMPI PUSH1 0x0 CALLDATASIZE PUSH1 0x3 NOT ADD SLT PUSH2 0x16C JUMPI PUSH2 0xA46 PUSH2 0x1438 JUMP JUMPDEST PUSH1 0x5 DUP1 SLOAD PUSH1 0x1 PUSH1 0x1 PUSH1 0xA0 SHL SUB NOT DUP2 AND SWAP1 SWAP2 SSTORE PUSH1 0x0 SWAP1 PUSH1 0x1 PUSH1 0x1 PUSH1 0xA0 SHL SUB AND PUSH32 0x8BE0079C531659141344CD1FD0A4F28419497F9722A3DAAFE3B4186F6B6457E0 DUP3 DUP1 LOG3 STOP JUMPDEST CALLVALUE PUSH2 0x16C JUMPI PUSH1 0x20 CALLDATASIZE PUSH1 0x3 NOT ADD SLT PUSH2 0x16C JUMPI PUSH1 0x1 PUSH1 0x1 PUSH1 0xA0 SHL SUB PUSH2 0xAAB PUSH2 0x1078 JUMP JUMPDEST AND PUSH1 0x0 MSTORE PUSH1 0x0 PUSH1 0x20 MSTORE PUSH1 0x20 PUSH1 0x40 PUSH1 0x0 KECCAK256 SLOAD PUSH1 0x40 MLOAD SWAP1 DUP2 MSTORE RETURN JUMPDEST CALLVALUE PUSH2 0x16C JUMPI PUSH1 0xA0 CALLDATASIZE PUSH1 0x3 NOT ADD SLT PUSH2 0x16C JUMPI PUSH1 0x4 CALLDATALOAD PUSH1 0x44 CALLDATALOAD PUSH8 0xFFFFFFFFFFFFFFFF DUP2 GT PUSH2 0x16C JUMPI CALLDATASIZE PUSH1 0x23 DUP3 ADD SLT ISZERO PUSH2 0x16C JUMPI DUP1 PUSH1 0x4 ADD CALLDATALOAD SWAP1 PUSH8 0xFFFFFFFFFFFFFFFF DUP3 GT PUSH2 0x16C JUMPI CALLDATASIZE PUSH1 0x24 DUP4 PUSH1 0x5 SHL DUP4 ADD ADD GT PUSH2 0x16C JUMPI PUSH1 0x64 CALLDATALOAD PUSH1 0x1 PUSH1 0x1 PUSH1 0xA0 SHL SUB DUP2 AND SWAP4 SWAP1 SWAP3 SWAP1 DUP5 DUP5 SUB PUSH2 0x16C JUMPI PUSH2 0xB3F PUSH1 0x84 CALLDATALOAD TIMESTAMP GT ISZERO PUSH2 0x10DC JUMP JUMPDEST PUSH1 0x2 DUP3 SUB PUSH2 0xD6B JUMPI DUP2 ISZERO PUSH2 0xD55 JUMPI PUSH2 0xB59 PUSH1 0x24 DUP5 ADD PUSH2 0x1112 JUMP JUMPDEST SWAP2 PUSH1 0x1 LT ISZERO PUSH2 0xD55 JUMPI PUSH2 0xB70 PUSH1 0x44 PUSH1 0x40 SWAP5 ADD PUSH2 0x1112 JUMP JUMPDEST SWAP1 PUSH2 0xB7B DUP3 DUP5 PUSH2 0x1399 JUMP JUMPDEST PUSH1 0x1 PUSH1 0x1 PUSH1 0xA0 SHL SUB SWAP2 DUP3 AND PUSH1 0x0 DUP2 DUP2 MSTORE PUSH1 0x6 PUSH1 0x20 SWAP1 DUP2 MSTORE DUP9 DUP3 KECCAK256 SWAP4 DUP6 AND DUP3 MSTORE SWAP3 SWAP1 SWAP3 MSTORE SWAP6 SWAP1 KECCAK256 DUP1 SLOAD PUSH1 0x1 DUP3 ADD DUP1 SLOAD SWAP7 SWAP1 SWAP4 AND SWAP7 DUP8 EQ SWAP5 SWAP2 SWAP3 SWAP2 SWAP1 DUP6 ISZERO PUSH2 0xD4F JUMPI SWAP6 SWAP3 JUMPDEST DUP7 ISZERO ISZERO DUP1 PUSH2 0xD46 JUMPI JUMPDEST PUSH2 0xBD0 SWAP1 PUSH2 0x1126 JUMP JUMPDEST PUSH2 0xBDB DUP5 DUP9 DUP8 PUSH2 0x128B JUMP JUMPDEST SWAP4 PUSH1 0x24 CALLDATALOAD DUP6 LT PUSH2 0xD0B JUMPI PUSH1 0x40 MLOAD PUSH4 0x23B872DD PUSH1 0xE0 SHL DUP2 MSTORE CALLER PUSH1 0x4 DUP3 ADD MSTORE ADDRESS PUSH1 0x24 DUP3 ADD MSTORE PUSH1 0x44 DUP2 ADD DUP8 SWAP1 MSTORE PUSH1 0x20 DUP2 PUSH1 0x64 DUP2 PUSH1 0x0 DUP15 GAS CALL DUP1 ISZERO PUSH2 0x4E9 JUMPI PUSH2 0xC61 SWAP5 PUSH1 0x20 SWAP3 DUP9 SWAP3 PUSH2 0xCF0 JUMPI JUMPDEST POP PUSH1 0x40 MLOAD PUSH4 0xA9059CBB PUSH1 0xE0 SHL DUP2 MSTORE PUSH1 0x1 PUSH1 0x1 PUSH1 0xA0 SHL SUB SWAP14 DUP15 AND PUSH1 0x4 DUP3 ADD MSTORE PUSH1 0x24 DUP2 ADD SWAP3 SWAP1 SWAP3 MSTORE SWAP1 SWAP12 AND SWAP11 SWAP4 DUP5 SWAP1 DUP13 SWAP1 DUP3 SWAP1 PUSH1 0x0 SWAP1 DUP3 SWAP1 PUSH1 0x44 DUP3 ADD SWAP1 JUMP JUMPDEST SUB SWAP3 GAS CALL SWAP2 DUP3 ISZERO PUSH2 0x4E9 JUMPI PUSH32 0xB39C9BC43F811E1A7CE159C5F147458FDB80266BF23C17322013316E27E086D0 SWAP9 PUSH1 0x40 SWAP9 DUP9 SWAP6 DUP9 SWAP6 PUSH2 0xCD3 JUMPI JUMPDEST POP ISZERO PUSH2 0xCBD JUMPI PUSH2 0xCAD SWAP5 PUSH2 0x7A0 SWAP2 PUSH2 0x1186 JUMP JUMPDEST SWAP1 SSTORE JUMPDEST DUP3 MLOAD SWAP2 DUP3 MSTORE PUSH1 0x20 DUP3 ADD MSTORE LOG4 STOP JUMPDEST SWAP2 PUSH2 0xCCC SWAP5 SWAP4 PUSH2 0x354 SWAP2 PUSH2 0x1179 JUMP JUMPDEST SWAP1 SSTORE PUSH2 0xCB0 JUMP JUMPDEST PUSH2 0xCEB SWAP1 PUSH1 0x20 RETURNDATASIZE PUSH1 0x20 GT PUSH2 0x4E2 JUMPI PUSH2 0x4D5 DUP2 DUP4 PUSH2 0x10A4 JUMP JUMPDEST PUSH2 0xC9A JUMP JUMPDEST PUSH2 0xD06 SWAP1 DUP5 RETURNDATASIZE DUP7 GT PUSH2 0x4E2 JUMPI PUSH2 0x4D5 DUP2 DUP4 PUSH2 0x10A4 JUMP JUMPDEST PUSH2 0xC24 JUMP JUMPDEST PUSH1 0x40 MLOAD PUSH3 0x461BCD PUSH1 0xE5 SHL DUP2 MSTORE PUSH1 0x20 PUSH1 0x4 DUP3 ADD MSTORE PUSH1 0x13 PUSH1 0x24 DUP3 ADD MSTORE PUSH19 0x125B9CDD59999A58DA595B9D081BDD5D1C1D5D PUSH1 0x6A SHL PUSH1 0x44 DUP3 ADD MSTORE PUSH1 0x64 SWAP1 REVERT JUMPDEST POP DUP4 ISZERO ISZERO PUSH2 0xBC7 JUMP JUMPDEST SWAP3 PUSH2 0xBBE JUMP JUMPDEST PUSH4 0x4E487B71 PUSH1 0xE0 SHL PUSH1 0x0 MSTORE PUSH1 0x32 PUSH1 0x4 MSTORE PUSH1 0x24 PUSH1 0x0 REVERT JUMPDEST PUSH1 0x40 MLOAD PUSH3 0x461BCD PUSH1 0xE5 SHL DUP2 MSTORE PUSH1 0x20 PUSH1 0x4 DUP3 ADD MSTORE PUSH1 0xC PUSH1 0x24 DUP3 ADD MSTORE PUSH12 0x92DCECC2D8D2C840E0C2E8D PUSH1 0xA3 SHL PUSH1 0x44 DUP3 ADD MSTORE PUSH1 0x64 SWAP1 REVERT JUMPDEST CALLVALUE PUSH2 0x16C JUMPI PUSH1 0x0 CALLDATASIZE PUSH1 0x3 NOT ADD SLT PUSH2 0x16C JUMPI PUSH1 0x20 PUSH1 0x40 MLOAD PUSH1 0x12 DUP2 MSTORE RETURN JUMPDEST CALLVALUE PUSH2 0x16C JUMPI PUSH1 0x60 CALLDATASIZE PUSH1 0x3 NOT ADD SLT PUSH2 0x16C JUMPI PUSH2 0xDD4 PUSH2 0x1078 JUMP JUMPDEST PUSH2 0xDDC PUSH2 0x108E JUMP JUMPDEST PUSH1 0x1 PUSH1 0x1 PUSH1 0xA0 SHL SUB DUP3 AND PUSH1 0x0 DUP2 DUP2 MSTORE PUSH1 0x1 PUSH1 0x20 SWAP1 DUP2 MSTORE PUSH1 0x40 DUP1 DUP4 KECCAK256 CALLER DUP5 MSTORE SWAP1 SWAP2 MSTORE SWAP1 KECCAK256 SLOAD SWAP1 SWAP3 PUSH1 0x44 CALLDATALOAD SWAP3 SWAP2 PUSH1 0x0 NOT DUP2 LT PUSH2 0xE1C JUMPI JUMPDEST POP PUSH2 0x8F5 SWAP4 POP PUSH2 0x1300 JUMP JUMPDEST DUP4 DUP2 LT PUSH2 0xE8B JUMPI DUP5 ISZERO PUSH2 0xE75 JUMPI CALLER ISZERO PUSH2 0xE5F JUMPI PUSH2 0x8F5 SWAP5 PUSH1 0x0 MSTORE PUSH1 0x1 PUSH1 0x20 MSTORE PUSH1 0x40 PUSH1 0x0 KECCAK256 PUSH1 0x1 DUP1 PUSH1 0xA0 SHL SUB CALLER AND PUSH1 0x0 MSTORE PUSH1 0x20 MSTORE DUP4 PUSH1 0x40 PUSH1 0x0 KECCAK256 SWAP2 SUB SWAP1 SSTORE DUP5 PUSH2 0xE11 JUMP JUMPDEST PUSH4 0x4A1406B1 PUSH1 0xE1 SHL PUSH1 0x0 MSTORE PUSH1 0x0 PUSH1 0x4 MSTORE PUSH1 0x24 PUSH1 0x0 REVERT JUMPDEST PUSH4 0xE602DF05 PUSH1 0xE0 SHL PUSH1 0x0 MSTORE PUSH1 0x0 PUSH1 0x4 MSTORE PUSH1 0x24 PUSH1 0x0 REVERT JUMPDEST DUP4 SWAP1 PUSH4 0x7DC7A0D9 PUSH1 0xE1 SHL PUSH1 0x0 MSTORE CALLER PUSH1 0x4 MSTORE PUSH1 0x24 MSTORE PUSH1 0x44 MSTORE PUSH1 0x64 PUSH1 0x0 REVERT JUMPDEST CALLVALUE PUSH2 0x16C JUMPI PUSH1 0x0 CALLDATASIZE PUSH1 0x3 NOT ADD SLT PUSH2 0x16C JUMPI PUSH1 0x20 PUSH1 0x2 SLOAD PUSH1 0x40 MLOAD SWAP1 DUP2 MSTORE RETURN JUMPDEST CALLVALUE PUSH2 0x16C JUMPI PUSH1 0x40 CALLDATASIZE PUSH1 0x3 NOT ADD SLT PUSH2 0x16C JUMPI PUSH2 0xEDF PUSH2 0x1078 JUMP JUMPDEST PUSH1 0x24 CALLDATALOAD SWAP1 CALLER ISZERO PUSH2 0xE75 JUMPI PUSH1 0x1 PUSH1 0x1 PUSH1 0xA0 SHL SUB AND SWAP1 DUP2 ISZERO PUSH2 0xE5F JUMPI CALLER PUSH1 0x0 MSTORE PUSH1 0x1 PUSH1 0x20 MSTORE PUSH1 0x40 PUSH1 0x0 KECCAK256 DUP3 PUSH1 0x0 MSTORE PUSH1 0x20 MSTORE DUP1 PUSH1 0x40 PUSH1 0x0 KECCAK256 SSTORE PUSH1 0x40 MLOAD SWAP1 DUP2 MSTORE PUSH32 0x8C5BE1E5EBEC7D5BD14F71427D1E84F3DD0314C0F7B2291E5B200AC8C7C3B925 PUSH1 0x20 CALLER SWAP3 LOG3 PUSH1 0x20 PUSH1 0x40 MLOAD PUSH1 0x1 DUP2 MSTORE RETURN JUMPDEST CALLVALUE PUSH2 0x16C JUMPI PUSH1 0x0 CALLDATASIZE PUSH1 0x3 NOT ADD SLT PUSH2 0x16C JUMPI PUSH1 0x40 MLOAD PUSH1 0x0 PUSH1 0x3 SLOAD DUP1 PUSH1 0x1 SHR SWAP1 PUSH1 0x1 DUP2 AND DUP1 ISZERO PUSH2 0x1001 JUMPI JUMPDEST PUSH1 0x20 DUP4 LT DUP2 EQ PUSH2 0x9E6 JUMPI DUP3 DUP6 MSTORE SWAP1 DUP2 ISZERO PUSH2 0x9C2 JUMPI POP PUSH1 0x1 EQ PUSH2 0xFA1 JUMPI PUSH2 0x3B5 DUP4 PUSH2 0x956 DUP2 DUP6 SUB DUP3 PUSH2 0x10A4 JUMP JUMPDEST SWAP2 SWAP1 POP PUSH1 0x3 PUSH1 0x0 MSTORE PUSH32 0xC2575A0E9E593C00F959F8C92F12DB2869C3395A3B0502D05E2516446F71F85B SWAP2 PUSH1 0x0 SWAP1 JUMPDEST DUP1 DUP3 LT PUSH2 0xFE7 JUMPI POP SWAP1 SWAP2 POP DUP2 ADD PUSH1 0x20 ADD PUSH2 0x956 PUSH2 0x946 JUMP JUMPDEST SWAP2 SWAP3 PUSH1 0x1 DUP2 PUSH1 0x20 SWAP3 SLOAD DUP4 DUP6 DUP9 ADD ADD MSTORE ADD SWAP2 ADD SWAP1 SWAP3 SWAP2 PUSH2 0xFCF JUMP JUMPDEST SWAP2 PUSH1 0x7F AND SWAP2 PUSH2 0xF75 JUMP JUMPDEST CALLVALUE PUSH2 0x16C JUMPI PUSH1 0x60 CALLDATASIZE PUSH1 0x3 NOT ADD SLT PUSH2 0x16C JUMPI PUSH1 0x20 PUSH2 0x8C7 PUSH1 0x44 CALLDATALOAD PUSH1 0x24 CALLDATALOAD PUSH1 0x4 CALLDATALOAD PUSH2 0x128B JUMP JUMPDEST SWAP2 SWAP1 SWAP2 PUSH1 0x20 DUP2 MSTORE DUP3 MLOAD DUP1 PUSH1 0x20 DUP4 ADD MSTORE PUSH1 0x0 JUMPDEST DUP2 DUP2 LT PUSH2 0x1062 JUMPI POP PUSH1 0x40 SWAP3 SWAP4 POP PUSH1 0x0 DUP4 DUP3 DUP5 ADD ADD MSTORE PUSH1 0x1F DUP1 NOT SWAP2 ADD AND ADD ADD SWAP1 JUMP JUMPDEST DUP1 PUSH1 0x20 DUP1 SWAP3 DUP8 ADD ADD MLOAD PUSH1 0x40 DUP3 DUP7 ADD ADD MSTORE ADD PUSH2 0x1041 JUMP JUMPDEST PUSH1 0x4 CALLDATALOAD SWAP1 PUSH1 0x1 PUSH1 0x1 PUSH1 0xA0 SHL SUB DUP3 AND DUP3 SUB PUSH2 0x16C JUMPI JUMP JUMPDEST PUSH1 0x24 CALLDATALOAD SWAP1 PUSH1 0x1 PUSH1 0x1 PUSH1 0xA0 SHL SUB DUP3 AND DUP3 SUB PUSH2 0x16C JUMPI JUMP JUMPDEST SWAP1 PUSH1 0x1F DUP1 NOT SWAP2 ADD AND DUP2 ADD SWAP1 DUP2 LT PUSH8 0xFFFFFFFFFFFFFFFF DUP3 GT OR PUSH2 0x10C6 JUMPI PUSH1 0x40 MSTORE JUMP JUMPDEST PUSH4 0x4E487B71 PUSH1 0xE0 SHL PUSH1 0x0 MSTORE PUSH1 0x41 PUSH1 0x4 MSTORE PUSH1 0x24 PUSH1 0x0 REVERT JUMPDEST ISZERO PUSH2 0x10E3 JUMPI JUMP JUMPDEST PUSH1 0x40 MLOAD PUSH3 0x461BCD PUSH1 0xE5 SHL DUP2 MSTORE PUSH1 0x20 PUSH1 0x4 DUP3 ADD MSTORE PUSH1 0x7 PUSH1 0x24 DUP3 ADD MSTORE PUSH7 0x115E1C1A5C9959 PUSH1 0xCA SHL PUSH1 0x44 DUP3 ADD MSTORE PUSH1 0x64 SWAP1 REVERT JUMPDEST CALLDATALOAD PUSH1 0x1 PUSH1 0x1 PUSH1 0xA0 SHL SUB DUP2 AND DUP2 SUB PUSH2 0x16C JUMPI SWAP1 JUMP JUMPDEST ISZERO PUSH2 0x112D JUMPI JUMP JUMPDEST PUSH1 0x40 MLOAD PUSH3 0x461BCD PUSH1 0xE5 SHL DUP2 MSTORE PUSH1 0x20 PUSH1 0x4 DUP3 ADD MSTORE PUSH1 0xC PUSH1 0x24 DUP3 ADD MSTORE PUSH12 0x4E6F206C6971756964697479 PUSH1 0xA0 SHL PUSH1 0x44 DUP3 ADD MSTORE PUSH1 0x64 SWAP1 REVERT JUMPDEST SWAP1 DUP2 PUSH1 0x20 SWAP2 SUB SLT PUSH2 0x16C JUMPI MLOAD DUP1 ISZERO ISZERO DUP2 SUB PUSH2 0x16C JUMPI SWAP1 JUMP JUMPDEST SWAP2 SWAP1 DUP3 SUB SWAP2 DUP3 GT PUSH2 0x442 JUMPI JUMP JUMPDEST SWAP2 SWAP1 DUP3 ADD DUP1 SWAP3 GT PUSH2 0x442 JUMPI JUMP JUMPDEST DUP2 DUP2 MUL SWAP3 SWAP2 DUP2 ISZERO SWAP2 DUP5 DIV EQ OR ISZERO PUSH2 0x442 JUMPI JUMP JUMPDEST DUP2 ISZERO PUSH2 0x11B0 JUMPI DIV SWAP1 JUMP JUMPDEST PUSH4 0x4E487B71 PUSH1 0xE0 SHL PUSH1 0x0 MSTORE PUSH1 0x12 PUSH1 0x4 MSTORE PUSH1 0x24 PUSH1 0x0 REVERT JUMPDEST ISZERO PUSH2 0x11CD JUMPI JUMP JUMPDEST PUSH1 0x40 MLOAD PUSH3 0x461BCD PUSH1 0xE5 SHL DUP2 MSTORE PUSH1 0x20 PUSH1 0x4 DUP3 ADD MSTORE PUSH1 0x14 PUSH1 0x24 DUP3 ADD MSTORE PUSH20 0x496E73756666696369656E7420616D6F756E7441 PUSH1 0x60 SHL PUSH1 0x44 DUP3 ADD MSTORE PUSH1 0x64 SWAP1 REVERT JUMPDEST ISZERO PUSH2 0x1210 JUMPI JUMP JUMPDEST PUSH1 0x40 MLOAD PUSH3 0x461BCD PUSH1 0xE5 SHL DUP2 MSTORE PUSH1 0x20 PUSH1 0x4 DUP3 ADD MSTORE PUSH1 0x14 PUSH1 0x24 DUP3 ADD MSTORE PUSH20 0x24B739BAB33334B1B4B2B73A1030B6B7BAB73A21 PUSH1 0x61 SHL PUSH1 0x44 DUP3 ADD MSTORE PUSH1 0x64 SWAP1 REVERT JUMPDEST ISZERO PUSH2 0x1253 JUMPI JUMP JUMPDEST PUSH1 0x40 MLOAD PUSH3 0x461BCD PUSH1 0xE5 SHL DUP2 MSTORE PUSH1 0x20 PUSH1 0x4 DUP3 ADD MSTORE PUSH1 0x10 PUSH1 0x24 DUP3 ADD MSTORE PUSH16 0x496E76616C6964207265736572766573 PUSH1 0x80 SHL PUSH1 0x44 DUP3 ADD MSTORE PUSH1 0x64 SWAP1 REVERT JUMPDEST SWAP2 DUP3 ISZERO PUSH2 0x12CD JUMPI PUSH2 0x12C1 SWAP3 PUSH2 0x12B5 PUSH2 0x12BB SWAP3 DUP5 ISZERO ISZERO DUP1 PUSH2 0x12C4 JUMPI JUMPDEST PUSH2 0x12AF SWAP1 PUSH2 0x124C JUMP JUMPDEST DUP3 PUSH2 0x1193 JUMP JUMPDEST SWAP3 PUSH2 0x1186 JUMP JUMPDEST SWAP1 PUSH2 0x11A6 JUMP JUMPDEST SWAP1 JUMP JUMPDEST POP DUP1 ISZERO ISZERO PUSH2 0x12A6 JUMP JUMPDEST PUSH1 0x40 MLOAD PUSH3 0x461BCD PUSH1 0xE5 SHL DUP2 MSTORE PUSH1 0x20 PUSH1 0x4 DUP3 ADD MSTORE PUSH1 0xB PUSH1 0x24 DUP3 ADD MSTORE PUSH11 0x16995C9BC8185B5BDD5B9D PUSH1 0xAA SHL PUSH1 0x44 DUP3 ADD MSTORE PUSH1 0x64 SWAP1 REVERT JUMPDEST PUSH1 0x1 PUSH1 0x1 PUSH1 0xA0 SHL SUB AND SWAP1 DUP2 ISZERO PUSH2 0x857 JUMPI PUSH1 0x1 PUSH1 0x1 PUSH1 0xA0 SHL SUB AND SWAP2 DUP3 ISZERO PUSH2 0x3CF JUMPI PUSH1 0x0 DUP3 DUP2 MSTORE DUP1 PUSH1 0x20 MSTORE PUSH1 0x40 DUP2 KECCAK256 SLOAD DUP3 DUP2 LT PUSH2 0x137F JUMPI SWAP2 PUSH1 0x40 DUP3 DUP3 PUSH32 0xDDF252AD1BE2C89B69C2B068FC378DAA952BA7F163C4A11628F55A4DF523B3EF SWAP6 DUP8 PUSH1 0x20 SWAP7 MSTORE DUP3 DUP7 MSTORE SUB DUP3 DUP3 KECCAK256 SSTORE DUP7 DUP2 MSTORE DUP1 DUP5 MSTORE KECCAK256 DUP2 DUP2 SLOAD ADD SWAP1 SSTORE PUSH1 0x40 MLOAD SWAP1 DUP2 MSTORE LOG3 JUMP JUMPDEST SWAP2 PUSH1 0x64 SWAP3 DUP5 PUSH4 0x391434E3 PUSH1 0xE2 SHL DUP5 MSTORE PUSH1 0x4 MSTORE PUSH1 0x24 MSTORE PUSH1 0x44 MSTORE REVERT JUMPDEST PUSH1 0x1 PUSH1 0x1 PUSH1 0xA0 SHL SUB DUP3 DUP2 AND SWAP1 DUP3 AND DUP1 DUP3 EQ PUSH2 0x1406 JUMPI DUP1 ISZERO ISZERO DUP1 PUSH2 0x13FD JUMPI JUMPDEST ISZERO PUSH2 0x13C9 JUMPI LT ISZERO PUSH2 0x13C5 JUMPI SWAP2 JUMP JUMPDEST SWAP1 SWAP2 JUMP JUMPDEST PUSH1 0x40 MLOAD PUSH3 0x461BCD PUSH1 0xE5 SHL DUP2 MSTORE PUSH1 0x20 PUSH1 0x4 DUP3 ADD MSTORE PUSH1 0xC PUSH1 0x24 DUP3 ADD MSTORE PUSH12 0x5A65726F2061646472657373 PUSH1 0xA0 SHL PUSH1 0x44 DUP3 ADD MSTORE PUSH1 0x64 SWAP1 REVERT JUMPDEST POP DUP2 ISZERO ISZERO PUSH2 0x13B7 JUMP JUMPDEST PUSH1 0x40 MLOAD PUSH3 0x461BCD PUSH1 0xE5 SHL DUP2 MSTORE PUSH1 0x20 PUSH1 0x4 DUP3 ADD MSTORE PUSH1 0xA PUSH1 0x24 DUP3 ADD MSTORE PUSH10 0x29B0B6B2903A37B5B2B7 PUSH1 0xB1 SHL PUSH1 0x44 DUP3 ADD MSTORE PUSH1 0x64 SWAP1 REVERT JUMPDEST PUSH1 0x5 SLOAD PUSH1 0x1 PUSH1 0x1 PUSH1 0xA0 SHL SUB AND CALLER SUB PUSH2 0x144C JUMPI JUMP JUMPDEST PUSH4 0x118CDAA7 PUSH1 0xE0 SHL PUSH1 0x0 MSTORE CALLER PUSH1 0x4 MSTORE PUSH1 0x24 PUSH1 0x0 REVERT JUMPDEST SWAP1 PUSH2 0x146C SWAP1 DUP3 PUSH2 0x1399 JUMP JUMPDEST SWAP1 PUSH1 0x1 DUP1 PUSH1 0xA0 SHL SUB AND SWAP1 DUP2 PUSH1 0x0 MSTORE PUSH1 0x6 PUSH1 0x20 MSTORE PUSH1 0x40 PUSH1 0x0 KECCAK256 SWAP1 PUSH1 0x1 DUP1 PUSH1 0xA0 SHL SUB AND PUSH1 0x0 MSTORE PUSH1 0x20 MSTORE PUSH1 0x40 PUSH1 0x0 KECCAK256 SWAP1 PUSH1 0x40 MLOAD SWAP3 PUSH1 0x40 DUP5 ADD SWAP4 DUP1 DUP6 LT PUSH8 0xFFFFFFFFFFFFFFFF DUP7 GT OR PUSH2 0x10C6 JUMPI PUSH1 0x20 SWAP5 PUSH1 0x40 MSTORE PUSH1 0x1 DUP5 SLOAD SWAP5 DUP6 DUP4 MSTORE ADD SLOAD SWAP5 DUP6 SWAP2 ADD MSTORE PUSH1 0x1 DUP1 PUSH1 0xA0 SHL SUB AND EQ PUSH1 0x0 EQ PUSH2 0x13C5 JUMPI SWAP2 JUMP JUMPDEST SWAP2 SWAP6 SWAP5 SWAP1 SWAP3 SWAP6 DUP3 ISZERO DUP1 PUSH2 0x1543 JUMPI JUMPDEST PUSH2 0x153A JUMPI PUSH2 0x14FD DUP4 PUSH2 0x491 DUP7 DUP5 PUSH2 0x1193 JUMP JUMPDEST SWAP2 DUP8 DUP4 GT ISZERO PUSH2 0x1527 JUMPI POP POP POP PUSH2 0x1523 SWAP2 PUSH2 0x491 PUSH2 0x151A SWAP3 DUP8 PUSH2 0x1193 JUMP JUMPDEST SWAP2 DUP3 LT ISZERO PUSH2 0x11C6 JUMP JUMPDEST SWAP2 SWAP1 JUMP JUMPDEST SWAP3 POP SWAP4 POP DUP1 SWAP6 POP PUSH2 0x1523 SWAP3 POP LT ISZERO PUSH2 0x1209 JUMP JUMPDEST SWAP4 POP POP POP POP SWAP2 SWAP1 JUMP JUMPDEST POP DUP4 ISZERO PUSH2 0x14EB JUMP INVALID LOG2 PUSH5 0x6970667358 0x22 SLT KECCAK256 PUSH4 0x7478FDD1 0xE6 0x29 SIGNEXTEND MOD ADDRESS PUSH11 0x3E4C671302CE4D48C92C12 DUP5 0xC3 0xFB SWAP6 PUSH20 0x661FB36FD64736F6C634300081C003300000000 "
        },
        "methodIdentifiers": {
          "addLiquidity(address,address,uint256,uint256,uint256,uint256,address,uint256)": "e8e33700",
          "allowance(address,address)": "dd62ed3e",
          "approve(address,uint256)": "095ea7b3",
          "balanceOf(address)": "70a08231",
          "decimals()": "313ce567",
          "getAmountOut(uint256,uint256,uint256)": "054d50d4",
          "getPrice(address,address)": "ac41865a",
          "getReserves(address,address)": "d52bb6f4",
          "name()": "06fdde03",
          "owner()": "8da5cb5b",
          "removeLiquidity(address,address,uint256,uint256,uint256,address,uint256)": "baa2abde",
          "renounceOwnership()": "715018a6",
          "swapExactTokensForTokens(uint256,uint256,address[],address,uint256)": "38ed1739",
          "symbol()": "95d89b41",
          "totalSupply()": "18160ddd",
          "transfer(address,uint256)": "a9059cbb",
          "transferFrom(address,address,uint256)": "23b872dd",
          "transferOwnership(address)": "f2fde38b"
        }
      }
    }
  }
}