{
  "contracts/SimpleSwap.sol": {
    "SimpleSwap": {
      "abi": [
        {
          "inputs": [],
          "stateMutability": "nonpayable",
          "type": "constructor"
        },
        {
          "inputs": [
            {
              "internalType": "address",
              "name": "spender",
              "type": "address"
            },
            {
              "internalType": "uint256",
              "name": "allowance",
              "type": "uint256"
            },
            {
              "internalType": "uint256",
              "name": "needed",
              "type": "uint256"
            }
          ],
          "name": "ERC20InsufficientAllowance",
          "type": "error"
        },
        {
          "inputs": [
            {
              "internalType": "address",
              "name": "sender",
              "type": "address"
            },
            {
              "internalType": "uint256",
              "name": "balance",
              "type": "uint256"
            },
            {
              "internalType": "uint256",
              "name": "needed",
              "type": "uint256"
            }
          ],
          "name": "ERC20InsufficientBalance",
          "type": "error"
        },
        {
          "inputs": [
            {
              "internalType": "address",
              "name": "approver",
              "type": "address"
            }
          ],
          "name": "ERC20InvalidApprover",
          "type": "error"
        },
        {
          "inputs": [
            {
              "internalType": "address",
              "name": "receiver",
              "type": "address"
            }
          ],
          "name": "ERC20InvalidReceiver",
          "type": "error"
        },
        {
          "inputs": [
            {
              "internalType": "address",
              "name": "sender",
              "type": "address"
            }
          ],
          "name": "ERC20InvalidSender",
          "type": "error"
        },
        {
          "inputs": [
            {
              "internalType": "address",
              "name": "spender",
              "type": "address"
            }
          ],
          "name": "ERC20InvalidSpender",
          "type": "error"
        },
        {
          "inputs": [
            {
              "internalType": "address",
              "name": "owner",
              "type": "address"
            }
          ],
          "name": "OwnableInvalidOwner",
          "type": "error"
        },
        {
          "inputs": [
            {
              "internalType": "address",
              "name": "account",
              "type": "address"
            }
          ],
          "name": "OwnableUnauthorizedAccount",
          "type": "error"
        },
        {
          "anonymous": false,
          "inputs": [
            {
              "indexed": true,
              "internalType": "address",
              "name": "owner",
              "type": "address"
            },
            {
              "indexed": true,
              "internalType": "address",
              "name": "spender",
              "type": "address"
            },
            {
              "indexed": false,
              "internalType": "uint256",
              "name": "value",
              "type": "uint256"
            }
          ],
          "name": "Approval",
          "type": "event"
        },
        {
          "anonymous": false,
          "inputs": [
            {
              "indexed": true,
              "internalType": "address",
              "name": "tokenA",
              "type": "address"
            },
            {
              "indexed": true,
              "internalType": "address",
              "name": "tokenB",
              "type": "address"
            },
            {
              "indexed": false,
              "internalType": "uint256",
              "name": "amountA",
              "type": "uint256"
            },
            {
              "indexed": false,
              "internalType": "uint256",
              "name": "amountB",
              "type": "uint256"
            },
            {
              "indexed": false,
              "internalType": "uint256",
              "name": "liquidity",
              "type": "uint256"
            }
          ],
          "name": "LiquidityAdded",
          "type": "event"
        },
        {
          "anonymous": false,
          "inputs": [
            {
              "indexed": true,
              "internalType": "address",
              "name": "tokenA",
              "type": "address"
            },
            {
              "indexed": true,
              "internalType": "address",
              "name": "tokenB",
              "type": "address"
            },
            {
              "indexed": false,
              "internalType": "uint256",
              "name": "amountA",
              "type": "uint256"
            },
            {
              "indexed": false,
              "internalType": "uint256",
              "name": "amountB",
              "type": "uint256"
            },
            {
              "indexed": false,
              "internalType": "uint256",
              "name": "liquidity",
              "type": "uint256"
            }
          ],
          "name": "LiquidityRemoved",
          "type": "event"
        },
        {
          "anonymous": false,
          "inputs": [
            {
              "indexed": true,
              "internalType": "address",
              "name": "previousOwner",
              "type": "address"
            },
            {
              "indexed": true,
              "internalType": "address",
              "name": "newOwner",
              "type": "address"
            }
          ],
          "name": "OwnershipTransferred",
          "type": "event"
        },
        {
          "anonymous": false,
          "inputs": [
            {
              "indexed": true,
              "internalType": "address",
              "name": "tokenIn",
              "type": "address"
            },
            {
              "indexed": true,
              "internalType": "address",
              "name": "tokenOut",
              "type": "address"
            },
            {
              "indexed": false,
              "internalType": "uint256",
              "name": "amountIn",
              "type": "uint256"
            },
            {
              "indexed": false,
              "internalType": "uint256",
              "name": "amountOut",
              "type": "uint256"
            },
            {
              "indexed": true,
              "internalType": "address",
              "name": "to",
              "type": "address"
            }
          ],
          "name": "Swap",
          "type": "event"
        },
        {
          "anonymous": false,
          "inputs": [
            {
              "indexed": true,
              "internalType": "address",
              "name": "from",
              "type": "address"
            },
            {
              "indexed": true,
              "internalType": "address",
              "name": "to",
              "type": "address"
            },
            {
              "indexed": false,
              "internalType": "uint256",
              "name": "value",
              "type": "uint256"
            }
          ],
          "name": "Transfer",
          "type": "event"
        },
        {
          "inputs": [
            {
              "internalType": "address",
              "name": "tokenA",
              "type": "address"
            },
            {
              "internalType": "address",
              "name": "tokenB",
              "type": "address"
            },
            {
              "internalType": "uint256",
              "name": "amountADesired",
              "type": "uint256"
            },
            {
              "internalType": "uint256",
              "name": "amountBDesired",
              "type": "uint256"
            },
            {
              "internalType": "uint256",
              "name": "amountAMin",
              "type": "uint256"
            },
            {
              "internalType": "uint256",
              "name": "amountBMin",
              "type": "uint256"
            },
            {
              "internalType": "address",
              "name": "to",
              "type": "address"
            },
            {
              "internalType": "uint256",
              "name": "deadline",
              "type": "uint256"
            }
          ],
          "name": "addLiquidity",
          "outputs": [
            {
              "internalType": "uint256",
              "name": "amountA",
              "type": "uint256"
            },
            {
              "internalType": "uint256",
              "name": "amountB",
              "type": "uint256"
            },
            {
              "internalType": "uint256",
              "name": "liquidity",
              "type": "uint256"
            }
          ],
          "stateMutability": "nonpayable",
          "type": "function"
        },
        {
          "inputs": [
            {
              "internalType": "address",
              "name": "owner",
              "type": "address"
            },
            {
              "internalType": "address",
              "name": "spender",
              "type": "address"
            }
          ],
          "name": "allowance",
          "outputs": [
            {
              "internalType": "uint256",
              "name": "",
              "type": "uint256"
            }
          ],
          "stateMutability": "view",
          "type": "function"
        },
        {
          "inputs": [
            {
              "internalType": "address",
              "name": "spender",
              "type": "address"
            },
            {
              "internalType": "uint256",
              "name": "value",
              "type": "uint256"
            }
          ],
          "name": "approve",
          "outputs": [
            {
              "internalType": "bool",
              "name": "",
              "type": "bool"
            }
          ],
          "stateMutability": "nonpayable",
          "type": "function"
        },
        {
          "inputs": [
            {
              "internalType": "address",
              "name": "account",
              "type": "address"
            }
          ],
          "name": "balanceOf",
          "outputs": [
            {
              "internalType": "uint256",
              "name": "",
              "type": "uint256"
            }
          ],
          "stateMutability": "view",
          "type": "function"
        },
        {
          "inputs": [],
          "name": "decimals",
          "outputs": [
            {
              "internalType": "uint8",
              "name": "",
              "type": "uint8"
            }
          ],
          "stateMutability": "view",
          "type": "function"
        },
        {
          "inputs": [
            {
              "internalType": "uint256",
              "name": "amountIn",
              "type": "uint256"
            },
            {
              "internalType": "uint256",
              "name": "reserveIn",
              "type": "uint256"
            },
            {
              "internalType": "uint256",
              "name": "reserveOut",
              "type": "uint256"
            }
          ],
          "name": "getAmountOut",
          "outputs": [
            {
              "internalType": "uint256",
              "name": "amountOut",
              "type": "uint256"
            }
          ],
          "stateMutability": "pure",
          "type": "function"
        },
        {
          "inputs": [
            {
              "internalType": "address",
              "name": "tokenA",
              "type": "address"
            },
            {
              "internalType": "address",
              "name": "tokenB",
              "type": "address"
            }
          ],
          "name": "getPrice",
          "outputs": [
            {
              "internalType": "uint256",
              "name": "price",
              "type": "uint256"
            }
          ],
          "stateMutability": "view",
          "type": "function"
        },
        {
          "inputs": [
            {
              "internalType": "address",
              "name": "tokenA",
              "type": "address"
            },
            {
              "internalType": "address",
              "name": "tokenB",
              "type": "address"
            }
          ],
          "name": "getReserves",
          "outputs": [
            {
              "internalType": "uint256",
              "name": "reserveA",
              "type": "uint256"
            },
            {
              "internalType": "uint256",
              "name": "reserveB",
              "type": "uint256"
            }
          ],
          "stateMutability": "view",
          "type": "function"
        },
        {
          "inputs": [],
          "name": "name",
          "outputs": [
            {
              "internalType": "string",
              "name": "",
              "type": "string"
            }
          ],
          "stateMutability": "view",
          "type": "function"
        },
        {
          "inputs": [],
          "name": "owner",
          "outputs": [
            {
              "internalType": "address",
              "name": "",
              "type": "address"
            }
          ],
          "stateMutability": "view",
          "type": "function"
        },
        {
          "inputs": [
            {
              "internalType": "address",
              "name": "tokenA",
              "type": "address"
            },
            {
              "internalType": "address",
              "name": "tokenB",
              "type": "address"
            },
            {
              "internalType": "uint256",
              "name": "liquidity",
              "type": "uint256"
            },
            {
              "internalType": "uint256",
              "name": "amountAMin",
              "type": "uint256"
            },
            {
              "internalType": "uint256",
              "name": "amountBMin",
              "type": "uint256"
            },
            {
              "internalType": "address",
              "name": "to",
              "type": "address"
            },
            {
              "internalType": "uint256",
              "name": "deadline",
              "type": "uint256"
            }
          ],
          "name": "removeLiquidity",
          "outputs": [
            {
              "internalType": "uint256",
              "name": "amountA",
              "type": "uint256"
            },
            {
              "internalType": "uint256",
              "name": "amountB",
              "type": "uint256"
            }
          ],
          "stateMutability": "nonpayable",
          "type": "function"
        },
        {
          "inputs": [],
          "name": "renounceOwnership",
          "outputs": [],
          "stateMutability": "nonpayable",
          "type": "function"
        },
        {
          "inputs": [
            {
              "internalType": "uint256",
              "name": "amountIn",
              "type": "uint256"
            },
            {
              "internalType": "uint256",
              "name": "amountOutMin",
              "type": "uint256"
            },
            {
              "internalType": "address[]",
              "name": "path",
              "type": "address[]"
            },
            {
              "internalType": "address",
              "name": "to",
              "type": "address"
            },
            {
              "internalType": "uint256",
              "name": "deadline",
              "type": "uint256"
            }
          ],
          "name": "swapExactTokensForTokens",
          "outputs": [],
          "stateMutability": "nonpayable",
          "type": "function"
        },
        {
          "inputs": [],
          "name": "symbol",
          "outputs": [
            {
              "internalType": "string",
              "name": "",
              "type": "string"
            }
          ],
          "stateMutability": "view",
          "type": "function"
        },
        {
          "inputs": [],
          "name": "totalSupply",
          "outputs": [
            {
              "internalType": "uint256",
              "name": "",
              "type": "uint256"
            }
          ],
          "stateMutability": "view",
          "type": "function"
        },
        {
          "inputs": [
            {
              "internalType": "address",
              "name": "to",
              "type": "address"
            },
            {
              "internalType": "uint256",
              "name": "value",
              "type": "uint256"
            }
          ],
          "name": "transfer",
          "outputs": [
            {
              "internalType": "bool",
              "name": "",
              "type": "bool"
            }
          ],
          "stateMutability": "nonpayable",
          "type": "function"
        },
        {
          "inputs": [
            {
              "internalType": "address",
              "name": "from",
              "type": "address"
            },
            {
              "internalType": "address",
              "name": "to",
              "type": "address"
            },
            {
              "internalType": "uint256",
              "name": "value",
              "type": "uint256"
            }
          ],
          "name": "transferFrom",
          "outputs": [
            {
              "internalType": "bool",
              "name": "",
              "type": "bool"
            }
          ],
          "stateMutability": "nonpayable",
          "type": "function"
        },
        {
          "inputs": [
            {
              "internalType": "address",
              "name": "newOwner",
              "type": "address"
            }
          ],
          "name": "transferOwnership",
          "outputs": [],
          "stateMutability": "nonpayable",
          "type": "function"
        }
      ],
      "evm": {
        "bytecode": {
          "linkReferences": {},
          "object": "60806040523461038557604080519081016001600160401b0381118282101761029057604090815260078252660546f6b656e4c560cc1b602083015280519081016001600160401b038111828210176102905760405260038152620544c560ec1b602082015281516001600160401b03811161029057600354600181811c9116801561037b575b602082101461027057601f8111610316575b50602092601f82116001146102b157928192936000926102a6575b50508160011b916000199060031b1c1916176003555b80516001600160401b03811161029057600454600181811c91168015610286575b602082101461027057601f811161020b575b50602091601f82116001146101a75791819260009261019c575b50508160011b916000199060031b1c1916176004555b33156101865760058054336001600160a01b03198216811790925560405191906001600160a01b03167f8be0079c531659141344cd1fd0a4f28419497f9722a3daafe3b4186f6b6457e0600080a3611733908161038b8239f35b631e4fbdf760e01b600052600060045260246000fd5b015190503880610116565b601f198216926004600052806000209160005b8581106101f3575083600195106101da575b505050811b0160045561012c565b015160001960f88460031b161c191690553880806101cc565b919260206001819286850151815501940192016101ba565b60046000527f8a35acfbc15ff81a39ae7d344fd709f28e8600b4aa8c65c6b64bfe7fe36bd19b601f830160051c81019160208410610266575b601f0160051c01905b81811061025a57506100fc565b6000815560010161024d565b9091508190610244565b634e487b7160e01b600052602260045260246000fd5b90607f16906100ea565b634e487b7160e01b600052604160045260246000fd5b0151905038806100b3565b601f198216936003600052806000209160005b8681106102fe57508360019596106102e5575b505050811b016003556100c9565b015160001960f88460031b161c191690553880806102d7565b919260206001819286850151815501940192016102c4565b60036000527fc2575a0e9e593c00f959f8c92f12db2869c3395a3b0502d05e2516446f71f85b601f830160051c81019160208410610371575b601f0160051c01905b8181106103655750610098565b60008155600101610358565b909150819061034f565b90607f1690610086565b600080fdfe6080604052600436101561001257600080fd5b60003560e01c8063054d50d4146111ce57806306fdde031461110f578063095ea7b31461108957806318160ddd1461106b57806323b872dd14610f7e578063313ce56714610f6257806338ed173914610bef57806370a0823114610bb5578063715018a614610b585780638da5cb5b14610b2f57806395d89b4114610a2b578063a9059cbb146109fa578063ac41865a1461099e578063baa2abde1461062a578063d52bb6f4146105f2578063dd62ed3e146105a1578063e8e33700146101715763f2fde38b146100e257600080fd5b3461016c57602036600319011261016c576100fb61123b565b610103611605565b6001600160a01b0316801561015657600580546001600160a01b0319811683179091556001600160a01b03167f8be0079c531659141344cd1fd0a4f28419497f9722a3daafe3b4186f6b6457e0600080a3005b631e4fbdf760e01b600052600060045260246000fd5b600080fd5b3461016c5761010036600319011261016c5761018b61123b565b610193611251565b60c4356001600160a01b038116929083900361016c576101b760e4354211156112bb565b6101c18282611566565b9060018060a01b031693846000526006602052604060002060018060a01b03831660005260205260206040600020936040516101fc81611267565b855480825260019096015492018290526001600160a01b031686811494909190851561059c57905b61023a60a435608435606435604435858761168f565b6040516323b872dd60e01b815233600482015230602482015260448101839052909991989060208160648160008a5af180156105735761057f575b506040516323b872dd60e01b8152336004820152306024820152604481018b90526001600160a01b0391909116959060208160648160008b5af1801561057357610546575b508989848660025480156000146104f557505050906102d891611372565b60038111156104e257808060011c600181018091116104cc57905b8282106104ad5750505b965b8715610478578115610462578a8a61040f9a6020946103208c600254611365565b6002558b7fddf252ad1be2c89b69c2b068fc378daa952ba7f163c4a11628f55a4df523b3ef600097889284845283825260408420818154019055604051908152a31561041357604093929161037b6103819260019899611365565b97611365565b9383519661038e88611267565b8752602087019485528252600660205282822090858060a01b031682526020522092518355519101555b60408051868152602081018890529081018490527f4a1a2a6176e9646d9e3157f7c2ab3c499f18337c0b0828cfb28e0a61de4a11f790606090a3604051938493846040919493926060820195825260208201520152565b0390f35b6104279061037b6040959493600198611365565b9383519661043488611267565b8752602087019485528252600660205282822090858060a01b031682526020522092518355519101556103b8565b63ec442f0560e01b600052600060045260246000fd5b60405162461bcd60e51b815260206004820152600d60248201526c4c6f77206c697175696469747960981b6044820152606490fd5b9091506104c3826104be8184611385565b611365565b60011c906102f3565b634e487b7160e01b600052601160045260246000fd5b156104ee5760016102fd565b60006102fd565b6105208261051b836105269761051b9615158061053d575b61051690611419565b611372565b611385565b94611372565b8082101561053657505b966102ff565b9050610530565b5087151561050d565b6105679060203d60201161056c575b61055f8183611299565b810190611340565b6102ba565b503d610555565b6040513d6000823e3d90fd5b6105979060203d60201161056c5761055f8183611299565b610275565b610224565b3461016c57604036600319011261016c576105ba61123b565b6105c2611251565b6001600160a01b039182166000908152600160209081526040808320949093168252928352819020549051908152f35b3461016c57604036600319011261016c57604061061e61061061123b565b610618611251565b9061162e565b82519182526020820152f35b3461016c5760e036600319011261016c5761064361123b565b61064b611251565b906044359060a4356001600160a01b038116810361016c5761067160c4354211156112bb565b6020600254936106818685611566565b6001600160a01b0391821660008181526006865260408082209484168252938652839020925192969094926106b581611267565b875480825260019098015493018390526001600160a01b03168481149690949087156109985792915b6106fa6106ef8a61051b8789611372565b9961051b8588611372565b976107096064358b10156113a5565b6107176084358a10156113df565b33156109825760009a338c528b60205260408c20548781106109675760208c8e8a6107b0943383528285520360408220558a60025403600255806040518c81527fddf252ad1be2c89b69c2b068fc378daa952ba7f163c4a11628f55a4df523b3ef853392a360405163a9059cbb60e01b81526001600160a01b038e16600482015260248101929092529092839190829081906044820190565b03918d5af18d811561095b57610804936020938e93610940575b5060405163a9059cbb60e01b81526001600160a01b039d8e1660048201526024810193909352909b169a9092839190829081906044820190565b03918d5af1801561093557928a8c6108ba98969460409f947fbc7d19d505c7ec4db83f3b51f19fb98c4c8a99922e7839d1ee608dfbee29501b9b9997610918575b50156108c9578e93929161085f6108659260019899611358565b97611358565b9383519661087288611267565b8752602087019485528252600660205282822090858060a01b031682526020522092518355519101555b87519182918789846040919493926060820195825260208201520152565b0390a382519182526020820152f35b6108dd908f94939261085f90600198611358565b938351966108ea88611267565b8752602087019485528252600660205282822090858060a01b0316825260205220925183555191015561089c565b6109309060203d60201161056c5761055f8183611299565b610845565b6040513d8e823e3d90fd5b61095690853d871161056c5761055f8183611299565b6107ca565b604051903d90823e3d90fd5b63391434e360e21b8d5233600452602452604487905260648cfd5b634b637e8f60e11b600052600060045260246000fd5b916106de565b3461016c57604036600319011261016c576109ba61061061123b565b6109c5821515611305565b670de0b6b3a7640000810290808204670de0b6b3a764000014901517156104cc576020916109f291611385565b604051908152f35b3461016c57604036600319011261016c57610a20610a1661123b565b60243590336114cd565b602060405160018152f35b3461016c57600036600319011261016c5760405160006004548060011c90600181168015610b25575b602083108114610b1157828552908115610aed5750600114610a8d575b61040f83610a8181850382611299565b604051918291826111f2565b91905060046000527f8a35acfbc15ff81a39ae7d344fd709f28e8600b4aa8c65c6b64bfe7fe36bd19b916000905b808210610ad357509091508101602001610a81610a71565b919260018160209254838588010152019101909291610abb565b60ff191660208086019190915291151560051b84019091019150610a819050610a71565b634e487b7160e01b84526022600452602484fd5b91607f1691610a54565b3461016c57600036600319011261016c576005546040516001600160a01b039091168152602090f35b3461016c57600036600319011261016c57610b71611605565b600580546001600160a01b031981169091556000906001600160a01b03167f8be0079c531659141344cd1fd0a4f28419497f9722a3daafe3b4186f6b6457e08280a3005b3461016c57602036600319011261016c576001600160a01b03610bd661123b565b1660005260006020526020604060002054604051908152f35b3461016c5760a036600319011261016c5760443560043567ffffffffffffffff821161016c573660238301121561016c5781600401359067ffffffffffffffff821161016c573660248360051b8501011161016c576064356001600160a01b0381169390929084840361016c57610c6a6084354211156112bb565b60028203610f2e578115610f1857610c84602482016112f1565b9160011015610f18576044610c9991016112f1565b90610ca48282611566565b939060018060a01b031693846000526006602052604060002060018060a01b0382166000526020526020604060002093604051610ce081611267565b855480825260019096015492018290526001600160a01b031695808714948515610f125791905b82151580610f09575b610d1990611305565b610d24828487611458565b936024358510610ed7576040516323b872dd60e01b81523360048201523060248201526044810187905260208160648160008e5af1801561057357610daa996020928892610ebc575b5060405163a9059cbb60e01b81526001600160a01b039d8e1660048201526024810192909252909b169a9889908c90829060009082906044820190565b03925af1978815610573578660409887927fb39c9bc43f811e1a7ce159c5f147458fdb80266bf23c17322013316e27e086d09b610e9f575b5015610e495790610df9610dff9260019697611365565b95611358565b91875194610e0c86611267565b85526020850192835260005260066020528660002090838060a01b03166000526020528560002092518355519101555b82519182526020820152a4005b610e58610e5e92600196611358565b95611365565b91875194610e6b86611267565b85526020850192835260005260066020528660002090838060a01b0316600052602052856000209251835551910155610e3c565b610eb79060203d60201161056c5761055f8183611299565b610de2565b610ed290843d861161056c5761055f8183611299565b610d6d565b60405162461bcd60e51b815260206004820152600a602482015269131bddc81bdd5d1c1d5d60b21b6044820152606490fd5b50811515610d10565b90610d07565b634e487b7160e01b600052603260045260246000fd5b60405162461bcd60e51b815260206004820152600c60248201526b092dcecc2d8d2c840e0c2e8d60a31b6044820152606490fd5b3461016c57600036600319011261016c57602060405160128152f35b3461016c57606036600319011261016c57610f9761123b565b610f9f611251565b6001600160a01b0382166000818152600160209081526040808320338452909152902054909260443592916000198110610fdf575b50610a2093506114cd565b83811061104e57841561103857331561102257610a20946000526001602052604060002060018060a01b0333166000526020528360406000209103905584610fd4565b634a1406b160e11b600052600060045260246000fd5b63e602df0560e01b600052600060045260246000fd5b8390637dc7a0d960e11b6000523360045260245260445260646000fd5b3461016c57600036600319011261016c576020600254604051908152f35b3461016c57604036600319011261016c576110a261123b565b602435903315611038576001600160a01b031690811561102257336000526001602052604060002082600052602052806040600020556040519081527f8c5be1e5ebec7d5bd14f71427d1e84f3dd0314c0f7b2291e5b200ac8c7c3b92560203392a3602060405160018152f35b3461016c57600036600319011261016c5760405160006003548060011c906001811680156111c4575b602083108114610b1157828552908115610aed57506001146111645761040f83610a8181850382611299565b91905060036000527fc2575a0e9e593c00f959f8c92f12db2869c3395a3b0502d05e2516446f71f85b916000905b8082106111aa57509091508101602001610a81610a71565b919260018160209254838588010152019101909291611192565b91607f1691611138565b3461016c57606036600319011261016c5760206109f2604435602435600435611458565b91909160208152825180602083015260005b818110611225575060409293506000838284010152601f8019910116010190565b8060208092870101516040828601015201611204565b600435906001600160a01b038216820361016c57565b602435906001600160a01b038216820361016c57565b6040810190811067ffffffffffffffff82111761128357604052565b634e487b7160e01b600052604160045260246000fd5b90601f8019910116810190811067ffffffffffffffff82111761128357604052565b156112c257565b60405162461bcd60e51b8152602060048201526007602482015266115e1c1a5c995960ca1b6044820152606490fd5b356001600160a01b038116810361016c5790565b1561130c57565b60405162461bcd60e51b815260206004820152600c60248201526b4e6f206c697175696469747960a01b6044820152606490fd5b9081602091031261016c5751801515810361016c5790565b919082039182116104cc57565b919082018092116104cc57565b818102929181159184041417156104cc57565b811561138f570490565b634e487b7160e01b600052601260045260246000fd5b156113ac57565b60405162461bcd60e51b815260206004820152600b60248201526a4c6f7720616d6f756e744160a81b6044820152606490fd5b156113e657565b60405162461bcd60e51b815260206004820152600b60248201526a2637bb9030b6b7bab73a2160a91b6044820152606490fd5b1561142057565b60405162461bcd60e51b815260206004820152601060248201526f496e76616c696420726573657276657360801b6044820152606490fd5b91821561149a5761148e926114826114889284151580611491575b61147c90611419565b82611372565b92611365565b90611385565b90565b50801515611473565b60405162461bcd60e51b815260206004820152600b60248201526a16995c9bc8185b5bdd5b9d60aa1b6044820152606490fd5b6001600160a01b0316908115610982576001600160a01b031691821561046257600082815280602052604081205482811061154c5791604082827fddf252ad1be2c89b69c2b068fc378daa952ba7f163c4a11628f55a4df523b3ef958760209652828652038282205586815280845220818154019055604051908152a3565b916064928463391434e360e21b8452600452602452604452fd5b6001600160a01b038281169082168082146115d357801515806115ca575b156115965710156115925791565b9091565b60405162461bcd60e51b815260206004820152600c60248201526b5a65726f206164647265737360a01b6044820152606490fd5b50811515611584565b60405162461bcd60e51b815260206004820152600a60248201526929b0b6b2903a37b5b2b760b11b6044820152606490fd5b6005546001600160a01b0316330361161957565b63118cdaa760e01b6000523360045260246000fd5b61163a60209282611566565b6001600160a01b03918216600081815260068652604080822094909316815292855291819020905190929061166e81611267565b835480825260019094015494018490526001600160a01b0316036115925791565b9195949092958215806116f5575b6116ec576116af8361051b8684611372565b91878311156116d9575050506116d59161051b6116cc9287611372565b918210156113a5565b9190565b925093508095506116d5925010156113df565b93505050509190565b50831561169d56fea26469706673582212201ebc4143645ee2ecfc0745ceb4312649a177f46d27ca90210adb7073f26d62d264736f6c634300081c0033",
          "opcodes": "PUSH1 0x80 PUSH1 0x40 MSTORE CALLVALUE PUSH2 0x385 JUMPI PUSH1 0x40 DUP1 MLOAD SWAP1 DUP2 ADD PUSH1 0x1 PUSH1 0x1 PUSH1 0x40 SHL SUB DUP2 GT DUP3 DUP3 LT OR PUSH2 0x290 JUMPI PUSH1 0x40 SWAP1 DUP2 MSTORE PUSH1 0x7 DUP3 MSTORE PUSH7 0x546F6B656E4C5 PUSH1 0xCC SHL PUSH1 0x20 DUP4 ADD MSTORE DUP1 MLOAD SWAP1 DUP2 ADD PUSH1 0x1 PUSH1 0x1 PUSH1 0x40 SHL SUB DUP2 GT DUP3 DUP3 LT OR PUSH2 0x290 JUMPI PUSH1 0x40 MSTORE PUSH1 0x3 DUP2 MSTORE PUSH3 0x544C5 PUSH1 0xEC SHL PUSH1 0x20 DUP3 ADD MSTORE DUP2 MLOAD PUSH1 0x1 PUSH1 0x1 PUSH1 0x40 SHL SUB DUP2 GT PUSH2 0x290 JUMPI PUSH1 0x3 SLOAD PUSH1 0x1 DUP2 DUP2 SHR SWAP2 AND DUP1 ISZERO PUSH2 0x37B JUMPI JUMPDEST PUSH1 0x20 DUP3 LT EQ PUSH2 0x270 JUMPI PUSH1 0x1F DUP2 GT PUSH2 0x316 JUMPI JUMPDEST POP PUSH1 0x20 SWAP3 PUSH1 0x1F DUP3 GT PUSH1 0x1 EQ PUSH2 0x2B1 JUMPI SWAP3 DUP2 SWAP3 SWAP4 PUSH1 0x0 SWAP3 PUSH2 0x2A6 JUMPI JUMPDEST POP POP DUP2 PUSH1 0x1 SHL SWAP2 PUSH1 0x0 NOT SWAP1 PUSH1 0x3 SHL SHR NOT AND OR PUSH1 0x3 SSTORE JUMPDEST DUP1 MLOAD PUSH1 0x1 PUSH1 0x1 PUSH1 0x40 SHL SUB DUP2 GT PUSH2 0x290 JUMPI PUSH1 0x4 SLOAD PUSH1 0x1 DUP2 DUP2 SHR SWAP2 AND DUP1 ISZERO PUSH2 0x286 JUMPI JUMPDEST PUSH1 0x20 DUP3 LT EQ PUSH2 0x270 JUMPI PUSH1 0x1F DUP2 GT PUSH2 0x20B JUMPI JUMPDEST POP PUSH1 0x20 SWAP2 PUSH1 0x1F DUP3 GT PUSH1 0x1 EQ PUSH2 0x1A7 JUMPI SWAP2 DUP2 SWAP3 PUSH1 0x0 SWAP3 PUSH2 0x19C JUMPI JUMPDEST POP POP DUP2 PUSH1 0x1 SHL SWAP2 PUSH1 0x0 NOT SWAP1 PUSH1 0x3 SHL SHR NOT AND OR PUSH1 0x4 SSTORE JUMPDEST CALLER ISZERO PUSH2 0x186 JUMPI PUSH1 0x5 DUP1 SLOAD CALLER PUSH1 0x1 PUSH1 0x1 PUSH1 0xA0 SHL SUB NOT DUP3 AND DUP2 OR SWAP1 SWAP3 SSTORE PUSH1 0x40 MLOAD SWAP2 SWAP1 PUSH1 0x1 PUSH1 0x1 PUSH1 0xA0 SHL SUB AND PUSH32 0x8BE0079C531659141344CD1FD0A4F28419497F9722A3DAAFE3B4186F6B6457E0 PUSH1 0x0 DUP1 LOG3 PUSH2 0x1733 SWAP1 DUP2 PUSH2 0x38B DUP3 CODECOPY RETURN JUMPDEST PUSH4 0x1E4FBDF7 PUSH1 0xE0 SHL PUSH1 0x0 MSTORE PUSH1 0x0 PUSH1 0x4 MSTORE PUSH1 0x24 PUSH1 0x0 REVERT JUMPDEST ADD MLOAD SWAP1 POP CODESIZE DUP1 PUSH2 0x116 JUMP JUMPDEST PUSH1 0x1F NOT DUP3 AND SWAP3 PUSH1 0x4 PUSH1 0x0 MSTORE DUP1 PUSH1 0x0 KECCAK256 SWAP2 PUSH1 0x0 JUMPDEST DUP6 DUP2 LT PUSH2 0x1F3 JUMPI POP DUP4 PUSH1 0x1 SWAP6 LT PUSH2 0x1DA JUMPI JUMPDEST POP POP POP DUP2 SHL ADD PUSH1 0x4 SSTORE PUSH2 0x12C JUMP JUMPDEST ADD MLOAD PUSH1 0x0 NOT PUSH1 0xF8 DUP5 PUSH1 0x3 SHL AND SHR NOT AND SWAP1 SSTORE CODESIZE DUP1 DUP1 PUSH2 0x1CC JUMP JUMPDEST SWAP2 SWAP3 PUSH1 0x20 PUSH1 0x1 DUP2 SWAP3 DUP7 DUP6 ADD MLOAD DUP2 SSTORE ADD SWAP5 ADD SWAP3 ADD PUSH2 0x1BA JUMP JUMPDEST PUSH1 0x4 PUSH1 0x0 MSTORE PUSH32 0x8A35ACFBC15FF81A39AE7D344FD709F28E8600B4AA8C65C6B64BFE7FE36BD19B PUSH1 0x1F DUP4 ADD PUSH1 0x5 SHR DUP2 ADD SWAP2 PUSH1 0x20 DUP5 LT PUSH2 0x266 JUMPI JUMPDEST PUSH1 0x1F ADD PUSH1 0x5 SHR ADD SWAP1 JUMPDEST DUP2 DUP2 LT PUSH2 0x25A JUMPI POP PUSH2 0xFC JUMP JUMPDEST PUSH1 0x0 DUP2 SSTORE PUSH1 0x1 ADD PUSH2 0x24D JUMP JUMPDEST SWAP1 SWAP2 POP DUP2 SWAP1 PUSH2 0x244 JUMP JUMPDEST PUSH4 0x4E487B71 PUSH1 0xE0 SHL PUSH1 0x0 MSTORE PUSH1 0x22 PUSH1 0x4 MSTORE PUSH1 0x24 PUSH1 0x0 REVERT JUMPDEST SWAP1 PUSH1 0x7F AND SWAP1 PUSH2 0xEA JUMP JUMPDEST PUSH4 0x4E487B71 PUSH1 0xE0 SHL PUSH1 0x0 MSTORE PUSH1 0x41 PUSH1 0x4 MSTORE PUSH1 0x24 PUSH1 0x0 REVERT JUMPDEST ADD MLOAD SWAP1 POP CODESIZE DUP1 PUSH2 0xB3 JUMP JUMPDEST PUSH1 0x1F NOT DUP3 AND SWAP4 PUSH1 0x3 PUSH1 0x0 MSTORE DUP1 PUSH1 0x0 KECCAK256 SWAP2 PUSH1 0x0 JUMPDEST DUP7 DUP2 LT PUSH2 0x2FE JUMPI POP DUP4 PUSH1 0x1 SWAP6 SWAP7 LT PUSH2 0x2E5 JUMPI JUMPDEST POP POP POP DUP2 SHL ADD PUSH1 0x3 SSTORE PUSH2 0xC9 JUMP JUMPDEST ADD MLOAD PUSH1 0x0 NOT PUSH1 0xF8 DUP5 PUSH1 0x3 SHL AND SHR NOT AND SWAP1 SSTORE CODESIZE DUP1 DUP1 PUSH2 0x2D7 JUMP JUMPDEST SWAP2 SWAP3 PUSH1 0x20 PUSH1 0x1 DUP2 SWAP3 DUP7 DUP6 ADD MLOAD DUP2 SSTORE ADD SWAP5 ADD SWAP3 ADD PUSH2 0x2C4 JUMP JUMPDEST PUSH1 0x3 PUSH1 0x0 MSTORE PUSH32 0xC2575A0E9E593C00F959F8C92F12DB2869C3395A3B0502D05E2516446F71F85B PUSH1 0x1F DUP4 ADD PUSH1 0x5 SHR DUP2 ADD SWAP2 PUSH1 0x20 DUP5 LT PUSH2 0x371 JUMPI JUMPDEST PUSH1 0x1F ADD PUSH1 0x5 SHR ADD SWAP1 JUMPDEST DUP2 DUP2 LT PUSH2 0x365 JUMPI POP PUSH2 0x98 JUMP JUMPDEST PUSH1 0x0 DUP2 SSTORE PUSH1 0x1 ADD PUSH2 0x358 JUMP JUMPDEST SWAP1 SWAP2 POP DUP2 SWAP1 PUSH2 0x34F JUMP JUMPDEST SWAP1 PUSH1 0x7F AND SWAP1 PUSH2 0x86 JUMP JUMPDEST PUSH1 0x0 DUP1 REVERT INVALID PUSH1 0x80 PUSH1 0x40 MSTORE PUSH1 0x4 CALLDATASIZE LT ISZERO PUSH2 0x12 JUMPI PUSH1 0x0 DUP1 REVERT JUMPDEST PUSH1 0x0 CALLDATALOAD PUSH1 0xE0 SHR DUP1 PUSH4 0x54D50D4 EQ PUSH2 0x11CE JUMPI DUP1 PUSH4 0x6FDDE03 EQ PUSH2 0x110F JUMPI DUP1 PUSH4 0x95EA7B3 EQ PUSH2 0x1089 JUMPI DUP1 PUSH4 0x18160DDD EQ PUSH2 0x106B JUMPI DUP1 PUSH4 0x23B872DD EQ PUSH2 0xF7E JUMPI DUP1 PUSH4 0x313CE567 EQ PUSH2 0xF62 JUMPI DUP1 PUSH4 0x38ED1739 EQ PUSH2 0xBEF JUMPI DUP1 PUSH4 0x70A08231 EQ PUSH2 0xBB5 JUMPI DUP1 PUSH4 0x715018A6 EQ PUSH2 0xB58 JUMPI DUP1 PUSH4 0x8DA5CB5B EQ PUSH2 0xB2F JUMPI DUP1 PUSH4 0x95D89B41 EQ PUSH2 0xA2B JUMPI DUP1 PUSH4 0xA9059CBB EQ PUSH2 0x9FA JUMPI DUP1 PUSH4 0xAC41865A EQ PUSH2 0x99E JUMPI DUP1 PUSH4 0xBAA2ABDE EQ PUSH2 0x62A JUMPI DUP1 PUSH4 0xD52BB6F4 EQ PUSH2 0x5F2 JUMPI DUP1 PUSH4 0xDD62ED3E EQ PUSH2 0x5A1 JUMPI DUP1 PUSH4 0xE8E33700 EQ PUSH2 0x171 JUMPI PUSH4 0xF2FDE38B EQ PUSH2 0xE2 JUMPI PUSH1 0x0 DUP1 REVERT JUMPDEST CALLVALUE PUSH2 0x16C JUMPI PUSH1 0x20 CALLDATASIZE PUSH1 0x3 NOT ADD SLT PUSH2 0x16C JUMPI PUSH2 0xFB PUSH2 0x123B JUMP JUMPDEST PUSH2 0x103 PUSH2 0x1605 JUMP JUMPDEST PUSH1 0x1 PUSH1 0x1 PUSH1 0xA0 SHL SUB AND DUP1 ISZERO PUSH2 0x156 JUMPI PUSH1 0x5 DUP1 SLOAD PUSH1 0x1 PUSH1 0x1 PUSH1 0xA0 SHL SUB NOT DUP2 AND DUP4 OR SWAP1 SWAP2 SSTORE PUSH1 0x1 PUSH1 0x1 PUSH1 0xA0 SHL SUB AND PUSH32 0x8BE0079C531659141344CD1FD0A4F28419497F9722A3DAAFE3B4186F6B6457E0 PUSH1 0x0 DUP1 LOG3 STOP JUMPDEST PUSH4 0x1E4FBDF7 PUSH1 0xE0 SHL PUSH1 0x0 MSTORE PUSH1 0x0 PUSH1 0x4 MSTORE PUSH1 0x24 PUSH1 0x0 REVERT JUMPDEST PUSH1 0x0 DUP1 REVERT JUMPDEST CALLVALUE PUSH2 0x16C JUMPI PUSH2 0x100 CALLDATASIZE PUSH1 0x3 NOT ADD SLT PUSH2 0x16C JUMPI PUSH2 0x18B PUSH2 0x123B JUMP JUMPDEST PUSH2 0x193 PUSH2 0x1251 JUMP JUMPDEST PUSH1 0xC4 CALLDATALOAD PUSH1 0x1 PUSH1 0x1 PUSH1 0xA0 SHL SUB DUP2 AND SWAP3 SWAP1 DUP4 SWAP1 SUB PUSH2 0x16C JUMPI PUSH2 0x1B7 PUSH1 0xE4 CALLDATALOAD TIMESTAMP GT ISZERO PUSH2 0x12BB JUMP JUMPDEST PUSH2 0x1C1 DUP3 DUP3 PUSH2 0x1566 JUMP JUMPDEST SWAP1 PUSH1 0x1 DUP1 PUSH1 0xA0 SHL SUB AND SWAP4 DUP5 PUSH1 0x0 MSTORE PUSH1 0x6 PUSH1 0x20 MSTORE PUSH1 0x40 PUSH1 0x0 KECCAK256 PUSH1 0x1 DUP1 PUSH1 0xA0 SHL SUB DUP4 AND PUSH1 0x0 MSTORE PUSH1 0x20 MSTORE PUSH1 0x20 PUSH1 0x40 PUSH1 0x0 KECCAK256 SWAP4 PUSH1 0x40 MLOAD PUSH2 0x1FC DUP2 PUSH2 0x1267 JUMP JUMPDEST DUP6 SLOAD DUP1 DUP3 MSTORE PUSH1 0x1 SWAP1 SWAP7 ADD SLOAD SWAP3 ADD DUP3 SWAP1 MSTORE PUSH1 0x1 PUSH1 0x1 PUSH1 0xA0 SHL SUB AND DUP7 DUP2 EQ SWAP5 SWAP1 SWAP2 SWAP1 DUP6 ISZERO PUSH2 0x59C JUMPI SWAP1 JUMPDEST PUSH2 0x23A PUSH1 0xA4 CALLDATALOAD PUSH1 0x84 CALLDATALOAD PUSH1 0x64 CALLDATALOAD PUSH1 0x44 CALLDATALOAD DUP6 DUP8 PUSH2 0x168F JUMP JUMPDEST PUSH1 0x40 MLOAD PUSH4 0x23B872DD PUSH1 0xE0 SHL DUP2 MSTORE CALLER PUSH1 0x4 DUP3 ADD MSTORE ADDRESS PUSH1 0x24 DUP3 ADD MSTORE PUSH1 0x44 DUP2 ADD DUP4 SWAP1 MSTORE SWAP1 SWAP10 SWAP2 SWAP9 SWAP1 PUSH1 0x20 DUP2 PUSH1 0x64 DUP2 PUSH1 0x0 DUP11 GAS CALL DUP1 ISZERO PUSH2 0x573 JUMPI PUSH2 0x57F JUMPI JUMPDEST POP PUSH1 0x40 MLOAD PUSH4 0x23B872DD PUSH1 0xE0 SHL DUP2 MSTORE CALLER PUSH1 0x4 DUP3 ADD MSTORE ADDRESS PUSH1 0x24 DUP3 ADD MSTORE PUSH1 0x44 DUP2 ADD DUP12 SWAP1 MSTORE PUSH1 0x1 PUSH1 0x1 PUSH1 0xA0 SHL SUB SWAP2 SWAP1 SWAP2 AND SWAP6 SWAP1 PUSH1 0x20 DUP2 PUSH1 0x64 DUP2 PUSH1 0x0 DUP12 GAS CALL DUP1 ISZERO PUSH2 0x573 JUMPI PUSH2 0x546 JUMPI JUMPDEST POP DUP10 DUP10 DUP5 DUP7 PUSH1 0x2 SLOAD DUP1 ISZERO PUSH1 0x0 EQ PUSH2 0x4F5 JUMPI POP POP POP SWAP1 PUSH2 0x2D8 SWAP2 PUSH2 0x1372 JUMP JUMPDEST PUSH1 0x3 DUP2 GT ISZERO PUSH2 0x4E2 JUMPI DUP1 DUP1 PUSH1 0x1 SHR PUSH1 0x1 DUP2 ADD DUP1 SWAP2 GT PUSH2 0x4CC JUMPI SWAP1 JUMPDEST DUP3 DUP3 LT PUSH2 0x4AD JUMPI POP POP JUMPDEST SWAP7 JUMPDEST DUP8 ISZERO PUSH2 0x478 JUMPI DUP2 ISZERO PUSH2 0x462 JUMPI DUP11 DUP11 PUSH2 0x40F SWAP11 PUSH1 0x20 SWAP5 PUSH2 0x320 DUP13 PUSH1 0x2 SLOAD PUSH2 0x1365 JUMP JUMPDEST PUSH1 0x2 SSTORE DUP12 PUSH32 0xDDF252AD1BE2C89B69C2B068FC378DAA952BA7F163C4A11628F55A4DF523B3EF PUSH1 0x0 SWAP8 DUP9 SWAP3 DUP5 DUP5 MSTORE DUP4 DUP3 MSTORE PUSH1 0x40 DUP5 KECCAK256 DUP2 DUP2 SLOAD ADD SWAP1 SSTORE PUSH1 0x40 MLOAD SWAP1 DUP2 MSTORE LOG3 ISZERO PUSH2 0x413 JUMPI PUSH1 0x40 SWAP4 SWAP3 SWAP2 PUSH2 0x37B PUSH2 0x381 SWAP3 PUSH1 0x1 SWAP9 SWAP10 PUSH2 0x1365 JUMP JUMPDEST SWAP8 PUSH2 0x1365 JUMP JUMPDEST SWAP4 DUP4 MLOAD SWAP7 PUSH2 0x38E DUP9 PUSH2 0x1267 JUMP JUMPDEST DUP8 MSTORE PUSH1 0x20 DUP8 ADD SWAP5 DUP6 MSTORE DUP3 MSTORE PUSH1 0x6 PUSH1 0x20 MSTORE DUP3 DUP3 KECCAK256 SWAP1 DUP6 DUP1 PUSH1 0xA0 SHL SUB AND DUP3 MSTORE PUSH1 0x20 MSTORE KECCAK256 SWAP3 MLOAD DUP4 SSTORE MLOAD SWAP2 ADD SSTORE JUMPDEST PUSH1 0x40 DUP1 MLOAD DUP7 DUP2 MSTORE PUSH1 0x20 DUP2 ADD DUP9 SWAP1 MSTORE SWAP1 DUP2 ADD DUP5 SWAP1 MSTORE PUSH32 0x4A1A2A6176E9646D9E3157F7C2AB3C499F18337C0B0828CFB28E0A61DE4A11F7 SWAP1 PUSH1 0x60 SWAP1 LOG3 PUSH1 0x40 MLOAD SWAP4 DUP5 SWAP4 DUP5 PUSH1 0x40 SWAP2 SWAP5 SWAP4 SWAP3 PUSH1 0x60 DUP3 ADD SWAP6 DUP3 MSTORE PUSH1 0x20 DUP3 ADD MSTORE ADD MSTORE JUMP JUMPDEST SUB SWAP1 RETURN JUMPDEST PUSH2 0x427 SWAP1 PUSH2 0x37B PUSH1 0x40 SWAP6 SWAP5 SWAP4 PUSH1 0x1 SWAP9 PUSH2 0x1365 JUMP JUMPDEST SWAP4 DUP4 MLOAD SWAP7 PUSH2 0x434 DUP9 PUSH2 0x1267 JUMP JUMPDEST DUP8 MSTORE PUSH1 0x20 DUP8 ADD SWAP5 DUP6 MSTORE DUP3 MSTORE PUSH1 0x6 PUSH1 0x20 MSTORE DUP3 DUP3 KECCAK256 SWAP1 DUP6 DUP1 PUSH1 0xA0 SHL SUB AND DUP3 MSTORE PUSH1 0x20 MSTORE KECCAK256 SWAP3 MLOAD DUP4 SSTORE MLOAD SWAP2 ADD SSTORE PUSH2 0x3B8 JUMP JUMPDEST PUSH4 0xEC442F05 PUSH1 0xE0 SHL PUSH1 0x0 MSTORE PUSH1 0x0 PUSH1 0x4 MSTORE PUSH1 0x24 PUSH1 0x0 REVERT JUMPDEST PUSH1 0x40 MLOAD PUSH3 0x461BCD PUSH1 0xE5 SHL DUP2 MSTORE PUSH1 0x20 PUSH1 0x4 DUP3 ADD MSTORE PUSH1 0xD PUSH1 0x24 DUP3 ADD MSTORE PUSH13 0x4C6F77206C6971756964697479 PUSH1 0x98 SHL PUSH1 0x44 DUP3 ADD MSTORE PUSH1 0x64 SWAP1 REVERT JUMPDEST SWAP1 SWAP2 POP PUSH2 0x4C3 DUP3 PUSH2 0x4BE DUP2 DUP5 PUSH2 0x1385 JUMP JUMPDEST PUSH2 0x1365 JUMP JUMPDEST PUSH1 0x1 SHR SWAP1 PUSH2 0x2F3 JUMP JUMPDEST PUSH4 0x4E487B71 PUSH1 0xE0 SHL PUSH1 0x0 MSTORE PUSH1 0x11 PUSH1 0x4 MSTORE PUSH1 0x24 PUSH1 0x0 REVERT JUMPDEST ISZERO PUSH2 0x4EE JUMPI PUSH1 0x1 PUSH2 0x2FD JUMP JUMPDEST PUSH1 0x0 PUSH2 0x2FD JUMP JUMPDEST PUSH2 0x520 DUP3 PUSH2 0x51B DUP4 PUSH2 0x526 SWAP8 PUSH2 0x51B SWAP7 ISZERO ISZERO DUP1 PUSH2 0x53D JUMPI JUMPDEST PUSH2 0x516 SWAP1 PUSH2 0x1419 JUMP JUMPDEST PUSH2 0x1372 JUMP JUMPDEST PUSH2 0x1385 JUMP JUMPDEST SWAP5 PUSH2 0x1372 JUMP JUMPDEST DUP1 DUP3 LT ISZERO PUSH2 0x536 JUMPI POP JUMPDEST SWAP7 PUSH2 0x2FF JUMP JUMPDEST SWAP1 POP PUSH2 0x530 JUMP JUMPDEST POP DUP8 ISZERO ISZERO PUSH2 0x50D JUMP JUMPDEST PUSH2 0x567 SWAP1 PUSH1 0x20 RETURNDATASIZE PUSH1 0x20 GT PUSH2 0x56C JUMPI JUMPDEST PUSH2 0x55F DUP2 DUP4 PUSH2 0x1299 JUMP JUMPDEST DUP2 ADD SWAP1 PUSH2 0x1340 JUMP JUMPDEST PUSH2 0x2BA JUMP JUMPDEST POP RETURNDATASIZE PUSH2 0x555 JUMP JUMPDEST PUSH1 0x40 MLOAD RETURNDATASIZE PUSH1 0x0 DUP3 RETURNDATACOPY RETURNDATASIZE SWAP1 REVERT JUMPDEST PUSH2 0x597 SWAP1 PUSH1 0x20 RETURNDATASIZE PUSH1 0x20 GT PUSH2 0x56C JUMPI PUSH2 0x55F DUP2 DUP4 PUSH2 0x1299 JUMP JUMPDEST PUSH2 0x275 JUMP JUMPDEST PUSH2 0x224 JUMP JUMPDEST CALLVALUE PUSH2 0x16C JUMPI PUSH1 0x40 CALLDATASIZE PUSH1 0x3 NOT ADD SLT PUSH2 0x16C JUMPI PUSH2 0x5BA PUSH2 0x123B JUMP JUMPDEST PUSH2 0x5C2 PUSH2 0x1251 JUMP JUMPDEST PUSH1 0x1 PUSH1 0x1 PUSH1 0xA0 SHL SUB SWAP2 DUP3 AND PUSH1 0x0 SWAP1 DUP2 MSTORE PUSH1 0x1 PUSH1 0x20 SWAP1 DUP2 MSTORE PUSH1 0x40 DUP1 DUP4 KECCAK256 SWAP5 SWAP1 SWAP4 AND DUP3 MSTORE SWAP3 DUP4 MSTORE DUP2 SWAP1 KECCAK256 SLOAD SWAP1 MLOAD SWAP1 DUP2 MSTORE RETURN JUMPDEST CALLVALUE PUSH2 0x16C JUMPI PUSH1 0x40 CALLDATASIZE PUSH1 0x3 NOT ADD SLT PUSH2 0x16C JUMPI PUSH1 0x40 PUSH2 0x61E PUSH2 0x610 PUSH2 0x123B JUMP JUMPDEST PUSH2 0x618 PUSH2 0x1251 JUMP JUMPDEST SWAP1 PUSH2 0x162E JUMP JUMPDEST DUP3 MLOAD SWAP2 DUP3 MSTORE PUSH1 0x20 DUP3 ADD MSTORE RETURN JUMPDEST CALLVALUE PUSH2 0x16C JUMPI PUSH1 0xE0 CALLDATASIZE PUSH1 0x3 NOT ADD SLT PUSH2 0x16C JUMPI PUSH2 0x643 PUSH2 0x123B JUMP JUMPDEST PUSH2 0x64B PUSH2 0x1251 JUMP JUMPDEST SWAP1 PUSH1 0x44 CALLDATALOAD SWAP1 PUSH1 0xA4 CALLDATALOAD PUSH1 0x1 PUSH1 0x1 PUSH1 0xA0 SHL SUB DUP2 AND DUP2 SUB PUSH2 0x16C JUMPI PUSH2 0x671 PUSH1 0xC4 CALLDATALOAD TIMESTAMP GT ISZERO PUSH2 0x12BB JUMP JUMPDEST PUSH1 0x20 PUSH1 0x2 SLOAD SWAP4 PUSH2 0x681 DUP7 DUP6 PUSH2 0x1566 JUMP JUMPDEST PUSH1 0x1 PUSH1 0x1 PUSH1 0xA0 SHL SUB SWAP2 DUP3 AND PUSH1 0x0 DUP2 DUP2 MSTORE PUSH1 0x6 DUP7 MSTORE PUSH1 0x40 DUP1 DUP3 KECCAK256 SWAP5 DUP5 AND DUP3 MSTORE SWAP4 DUP7 MSTORE DUP4 SWAP1 KECCAK256 SWAP3 MLOAD SWAP3 SWAP7 SWAP1 SWAP5 SWAP3 PUSH2 0x6B5 DUP2 PUSH2 0x1267 JUMP JUMPDEST DUP8 SLOAD DUP1 DUP3 MSTORE PUSH1 0x1 SWAP1 SWAP9 ADD SLOAD SWAP4 ADD DUP4 SWAP1 MSTORE PUSH1 0x1 PUSH1 0x1 PUSH1 0xA0 SHL SUB AND DUP5 DUP2 EQ SWAP7 SWAP1 SWAP5 SWAP1 DUP8 ISZERO PUSH2 0x998 JUMPI SWAP3 SWAP2 JUMPDEST PUSH2 0x6FA PUSH2 0x6EF DUP11 PUSH2 0x51B DUP8 DUP10 PUSH2 0x1372 JUMP JUMPDEST SWAP10 PUSH2 0x51B DUP6 DUP9 PUSH2 0x1372 JUMP JUMPDEST SWAP8 PUSH2 0x709 PUSH1 0x64 CALLDATALOAD DUP12 LT ISZERO PUSH2 0x13A5 JUMP JUMPDEST PUSH2 0x717 PUSH1 0x84 CALLDATALOAD DUP11 LT ISZERO PUSH2 0x13DF JUMP JUMPDEST CALLER ISZERO PUSH2 0x982 JUMPI PUSH1 0x0 SWAP11 CALLER DUP13 MSTORE DUP12 PUSH1 0x20 MSTORE PUSH1 0x40 DUP13 KECCAK256 SLOAD DUP8 DUP2 LT PUSH2 0x967 JUMPI PUSH1 0x20 DUP13 DUP15 DUP11 PUSH2 0x7B0 SWAP5 CALLER DUP4 MSTORE DUP3 DUP6 MSTORE SUB PUSH1 0x40 DUP3 KECCAK256 SSTORE DUP11 PUSH1 0x2 SLOAD SUB PUSH1 0x2 SSTORE DUP1 PUSH1 0x40 MLOAD DUP13 DUP2 MSTORE PUSH32 0xDDF252AD1BE2C89B69C2B068FC378DAA952BA7F163C4A11628F55A4DF523B3EF DUP6 CALLER SWAP3 LOG3 PUSH1 0x40 MLOAD PUSH4 0xA9059CBB PUSH1 0xE0 SHL DUP2 MSTORE PUSH1 0x1 PUSH1 0x1 PUSH1 0xA0 SHL SUB DUP15 AND PUSH1 0x4 DUP3 ADD MSTORE PUSH1 0x24 DUP2 ADD SWAP3 SWAP1 SWAP3 MSTORE SWAP1 SWAP3 DUP4 SWAP2 SWAP1 DUP3 SWAP1 DUP2 SWAP1 PUSH1 0x44 DUP3 ADD SWAP1 JUMP JUMPDEST SUB SWAP2 DUP14 GAS CALL DUP14 DUP2 ISZERO PUSH2 0x95B JUMPI PUSH2 0x804 SWAP4 PUSH1 0x20 SWAP4 DUP15 SWAP4 PUSH2 0x940 JUMPI JUMPDEST POP PUSH1 0x40 MLOAD PUSH4 0xA9059CBB PUSH1 0xE0 SHL DUP2 MSTORE PUSH1 0x1 PUSH1 0x1 PUSH1 0xA0 SHL SUB SWAP14 DUP15 AND PUSH1 0x4 DUP3 ADD MSTORE PUSH1 0x24 DUP2 ADD SWAP4 SWAP1 SWAP4 MSTORE SWAP1 SWAP12 AND SWAP11 SWAP1 SWAP3 DUP4 SWAP2 SWAP1 DUP3 SWAP1 DUP2 SWAP1 PUSH1 0x44 DUP3 ADD SWAP1 JUMP JUMPDEST SUB SWAP2 DUP14 GAS CALL DUP1 ISZERO PUSH2 0x935 JUMPI SWAP3 DUP11 DUP13 PUSH2 0x8BA SWAP9 SWAP7 SWAP5 PUSH1 0x40 SWAP16 SWAP5 PUSH32 0xBC7D19D505C7EC4DB83F3B51F19FB98C4C8A99922E7839D1EE608DFBEE29501B SWAP12 SWAP10 SWAP8 PUSH2 0x918 JUMPI JUMPDEST POP ISZERO PUSH2 0x8C9 JUMPI DUP15 SWAP4 SWAP3 SWAP2 PUSH2 0x85F PUSH2 0x865 SWAP3 PUSH1 0x1 SWAP9 SWAP10 PUSH2 0x1358 JUMP JUMPDEST SWAP8 PUSH2 0x1358 JUMP JUMPDEST SWAP4 DUP4 MLOAD SWAP7 PUSH2 0x872 DUP9 PUSH2 0x1267 JUMP JUMPDEST DUP8 MSTORE PUSH1 0x20 DUP8 ADD SWAP5 DUP6 MSTORE DUP3 MSTORE PUSH1 0x6 PUSH1 0x20 MSTORE DUP3 DUP3 KECCAK256 SWAP1 DUP6 DUP1 PUSH1 0xA0 SHL SUB AND DUP3 MSTORE PUSH1 0x20 MSTORE KECCAK256 SWAP3 MLOAD DUP4 SSTORE MLOAD SWAP2 ADD SSTORE JUMPDEST DUP8 MLOAD SWAP2 DUP3 SWAP2 DUP8 DUP10 DUP5 PUSH1 0x40 SWAP2 SWAP5 SWAP4 SWAP3 PUSH1 0x60 DUP3 ADD SWAP6 DUP3 MSTORE PUSH1 0x20 DUP3 ADD MSTORE ADD MSTORE JUMP JUMPDEST SUB SWAP1 LOG3 DUP3 MLOAD SWAP2 DUP3 MSTORE PUSH1 0x20 DUP3 ADD MSTORE RETURN JUMPDEST PUSH2 0x8DD SWAP1 DUP16 SWAP5 SWAP4 SWAP3 PUSH2 0x85F SWAP1 PUSH1 0x1 SWAP9 PUSH2 0x1358 JUMP JUMPDEST SWAP4 DUP4 MLOAD SWAP7 PUSH2 0x8EA DUP9 PUSH2 0x1267 JUMP JUMPDEST DUP8 MSTORE PUSH1 0x20 DUP8 ADD SWAP5 DUP6 MSTORE DUP3 MSTORE PUSH1 0x6 PUSH1 0x20 MSTORE DUP3 DUP3 KECCAK256 SWAP1 DUP6 DUP1 PUSH1 0xA0 SHL SUB AND DUP3 MSTORE PUSH1 0x20 MSTORE KECCAK256 SWAP3 MLOAD DUP4 SSTORE MLOAD SWAP2 ADD SSTORE PUSH2 0x89C JUMP JUMPDEST PUSH2 0x930 SWAP1 PUSH1 0x20 RETURNDATASIZE PUSH1 0x20 GT PUSH2 0x56C JUMPI PUSH2 0x55F DUP2 DUP4 PUSH2 0x1299 JUMP JUMPDEST PUSH2 0x845 JUMP JUMPDEST PUSH1 0x40 MLOAD RETURNDATASIZE DUP15 DUP3 RETURNDATACOPY RETURNDATASIZE SWAP1 REVERT JUMPDEST PUSH2 0x956 SWAP1 DUP6 RETURNDATASIZE DUP8 GT PUSH2 0x56C JUMPI PUSH2 0x55F DUP2 DUP4 PUSH2 0x1299 JUMP JUMPDEST PUSH2 0x7CA JUMP JUMPDEST PUSH1 0x40 MLOAD SWAP1 RETURNDATASIZE SWAP1 DUP3 RETURNDATACOPY RETURNDATASIZE SWAP1 REVERT JUMPDEST PUSH4 0x391434E3 PUSH1 0xE2 SHL DUP14 MSTORE CALLER PUSH1 0x4 MSTORE PUSH1 0x24 MSTORE PUSH1 0x44 DUP8 SWAP1 MSTORE PUSH1 0x64 DUP13 REVERT JUMPDEST PUSH4 0x4B637E8F PUSH1 0xE1 SHL PUSH1 0x0 MSTORE PUSH1 0x0 PUSH1 0x4 MSTORE PUSH1 0x24 PUSH1 0x0 REVERT JUMPDEST SWAP2 PUSH2 0x6DE JUMP JUMPDEST CALLVALUE PUSH2 0x16C JUMPI PUSH1 0x40 CALLDATASIZE PUSH1 0x3 NOT ADD SLT PUSH2 0x16C JUMPI PUSH2 0x9BA PUSH2 0x610 PUSH2 0x123B JUMP JUMPDEST PUSH2 0x9C5 DUP3 ISZERO ISZERO PUSH2 0x1305 JUMP JUMPDEST PUSH8 0xDE0B6B3A7640000 DUP2 MUL SWAP1 DUP1 DUP3 DIV PUSH8 0xDE0B6B3A7640000 EQ SWAP1 ISZERO OR ISZERO PUSH2 0x4CC JUMPI PUSH1 0x20 SWAP2 PUSH2 0x9F2 SWAP2 PUSH2 0x1385 JUMP JUMPDEST PUSH1 0x40 MLOAD SWAP1 DUP2 MSTORE RETURN JUMPDEST CALLVALUE PUSH2 0x16C JUMPI PUSH1 0x40 CALLDATASIZE PUSH1 0x3 NOT ADD SLT PUSH2 0x16C JUMPI PUSH2 0xA20 PUSH2 0xA16 PUSH2 0x123B JUMP JUMPDEST PUSH1 0x24 CALLDATALOAD SWAP1 CALLER PUSH2 0x14CD JUMP JUMPDEST PUSH1 0x20 PUSH1 0x40 MLOAD PUSH1 0x1 DUP2 MSTORE RETURN JUMPDEST CALLVALUE PUSH2 0x16C JUMPI PUSH1 0x0 CALLDATASIZE PUSH1 0x3 NOT ADD SLT PUSH2 0x16C JUMPI PUSH1 0x40 MLOAD PUSH1 0x0 PUSH1 0x4 SLOAD DUP1 PUSH1 0x1 SHR SWAP1 PUSH1 0x1 DUP2 AND DUP1 ISZERO PUSH2 0xB25 JUMPI JUMPDEST PUSH1 0x20 DUP4 LT DUP2 EQ PUSH2 0xB11 JUMPI DUP3 DUP6 MSTORE SWAP1 DUP2 ISZERO PUSH2 0xAED JUMPI POP PUSH1 0x1 EQ PUSH2 0xA8D JUMPI JUMPDEST PUSH2 0x40F DUP4 PUSH2 0xA81 DUP2 DUP6 SUB DUP3 PUSH2 0x1299 JUMP JUMPDEST PUSH1 0x40 MLOAD SWAP2 DUP3 SWAP2 DUP3 PUSH2 0x11F2 JUMP JUMPDEST SWAP2 SWAP1 POP PUSH1 0x4 PUSH1 0x0 MSTORE PUSH32 0x8A35ACFBC15FF81A39AE7D344FD709F28E8600B4AA8C65C6B64BFE7FE36BD19B SWAP2 PUSH1 0x0 SWAP1 JUMPDEST DUP1 DUP3 LT PUSH2 0xAD3 JUMPI POP SWAP1 SWAP2 POP DUP2 ADD PUSH1 0x20 ADD PUSH2 0xA81 PUSH2 0xA71 JUMP JUMPDEST SWAP2 SWAP3 PUSH1 0x1 DUP2 PUSH1 0x20 SWAP3 SLOAD DUP4 DUP6 DUP9 ADD ADD MSTORE ADD SWAP2 ADD SWAP1 SWAP3 SWAP2 PUSH2 0xABB JUMP JUMPDEST PUSH1 0xFF NOT AND PUSH1 0x20 DUP1 DUP7 ADD SWAP2 SWAP1 SWAP2 MSTORE SWAP2 ISZERO ISZERO PUSH1 0x5 SHL DUP5 ADD SWAP1 SWAP2 ADD SWAP2 POP PUSH2 0xA81 SWAP1 POP PUSH2 0xA71 JUMP JUMPDEST PUSH4 0x4E487B71 PUSH1 0xE0 SHL DUP5 MSTORE PUSH1 0x22 PUSH1 0x4 MSTORE PUSH1 0x24 DUP5 REVERT JUMPDEST SWAP2 PUSH1 0x7F AND SWAP2 PUSH2 0xA54 JUMP JUMPDEST CALLVALUE PUSH2 0x16C JUMPI PUSH1 0x0 CALLDATASIZE PUSH1 0x3 NOT ADD SLT PUSH2 0x16C JUMPI PUSH1 0x5 SLOAD PUSH1 0x40 MLOAD PUSH1 0x1 PUSH1 0x1 PUSH1 0xA0 SHL SUB SWAP1 SWAP2 AND DUP2 MSTORE PUSH1 0x20 SWAP1 RETURN JUMPDEST CALLVALUE PUSH2 0x16C JUMPI PUSH1 0x0 CALLDATASIZE PUSH1 0x3 NOT ADD SLT PUSH2 0x16C JUMPI PUSH2 0xB71 PUSH2 0x1605 JUMP JUMPDEST PUSH1 0x5 DUP1 SLOAD PUSH1 0x1 PUSH1 0x1 PUSH1 0xA0 SHL SUB NOT DUP2 AND SWAP1 SWAP2 SSTORE PUSH1 0x0 SWAP1 PUSH1 0x1 PUSH1 0x1 PUSH1 0xA0 SHL SUB AND PUSH32 0x8BE0079C531659141344CD1FD0A4F28419497F9722A3DAAFE3B4186F6B6457E0 DUP3 DUP1 LOG3 STOP JUMPDEST CALLVALUE PUSH2 0x16C JUMPI PUSH1 0x20 CALLDATASIZE PUSH1 0x3 NOT ADD SLT PUSH2 0x16C JUMPI PUSH1 0x1 PUSH1 0x1 PUSH1 0xA0 SHL SUB PUSH2 0xBD6 PUSH2 0x123B JUMP JUMPDEST AND PUSH1 0x0 MSTORE PUSH1 0x0 PUSH1 0x20 MSTORE PUSH1 0x20 PUSH1 0x40 PUSH1 0x0 KECCAK256 SLOAD PUSH1 0x40 MLOAD SWAP1 DUP2 MSTORE RETURN JUMPDEST CALLVALUE PUSH2 0x16C JUMPI PUSH1 0xA0 CALLDATASIZE PUSH1 0x3 NOT ADD SLT PUSH2 0x16C JUMPI PUSH1 0x44 CALLDATALOAD PUSH1 0x4 CALLDATALOAD PUSH8 0xFFFFFFFFFFFFFFFF DUP3 GT PUSH2 0x16C JUMPI CALLDATASIZE PUSH1 0x23 DUP4 ADD SLT ISZERO PUSH2 0x16C JUMPI DUP2 PUSH1 0x4 ADD CALLDATALOAD SWAP1 PUSH8 0xFFFFFFFFFFFFFFFF DUP3 GT PUSH2 0x16C JUMPI CALLDATASIZE PUSH1 0x24 DUP4 PUSH1 0x5 SHL DUP6 ADD ADD GT PUSH2 0x16C JUMPI PUSH1 0x64 CALLDATALOAD PUSH1 0x1 PUSH1 0x1 PUSH1 0xA0 SHL SUB DUP2 AND SWAP4 SWAP1 SWAP3 SWAP1 DUP5 DUP5 SUB PUSH2 0x16C JUMPI PUSH2 0xC6A PUSH1 0x84 CALLDATALOAD TIMESTAMP GT ISZERO PUSH2 0x12BB JUMP JUMPDEST PUSH1 0x2 DUP3 SUB PUSH2 0xF2E JUMPI DUP2 ISZERO PUSH2 0xF18 JUMPI PUSH2 0xC84 PUSH1 0x24 DUP3 ADD PUSH2 0x12F1 JUMP JUMPDEST SWAP2 PUSH1 0x1 LT ISZERO PUSH2 0xF18 JUMPI PUSH1 0x44 PUSH2 0xC99 SWAP2 ADD PUSH2 0x12F1 JUMP JUMPDEST SWAP1 PUSH2 0xCA4 DUP3 DUP3 PUSH2 0x1566 JUMP JUMPDEST SWAP4 SWAP1 PUSH1 0x1 DUP1 PUSH1 0xA0 SHL SUB AND SWAP4 DUP5 PUSH1 0x0 MSTORE PUSH1 0x6 PUSH1 0x20 MSTORE PUSH1 0x40 PUSH1 0x0 KECCAK256 PUSH1 0x1 DUP1 PUSH1 0xA0 SHL SUB DUP3 AND PUSH1 0x0 MSTORE PUSH1 0x20 MSTORE PUSH1 0x20 PUSH1 0x40 PUSH1 0x0 KECCAK256 SWAP4 PUSH1 0x40 MLOAD PUSH2 0xCE0 DUP2 PUSH2 0x1267 JUMP JUMPDEST DUP6 SLOAD DUP1 DUP3 MSTORE PUSH1 0x1 SWAP1 SWAP7 ADD SLOAD SWAP3 ADD DUP3 SWAP1 MSTORE PUSH1 0x1 PUSH1 0x1 PUSH1 0xA0 SHL SUB AND SWAP6 DUP1 DUP8 EQ SWAP5 DUP6 ISZERO PUSH2 0xF12 JUMPI SWAP2 SWAP1 JUMPDEST DUP3 ISZERO ISZERO DUP1 PUSH2 0xF09 JUMPI JUMPDEST PUSH2 0xD19 SWAP1 PUSH2 0x1305 JUMP JUMPDEST PUSH2 0xD24 DUP3 DUP5 DUP8 PUSH2 0x1458 JUMP JUMPDEST SWAP4 PUSH1 0x24 CALLDATALOAD DUP6 LT PUSH2 0xED7 JUMPI PUSH1 0x40 MLOAD PUSH4 0x23B872DD PUSH1 0xE0 SHL DUP2 MSTORE CALLER PUSH1 0x4 DUP3 ADD MSTORE ADDRESS PUSH1 0x24 DUP3 ADD MSTORE PUSH1 0x44 DUP2 ADD DUP8 SWAP1 MSTORE PUSH1 0x20 DUP2 PUSH1 0x64 DUP2 PUSH1 0x0 DUP15 GAS CALL DUP1 ISZERO PUSH2 0x573 JUMPI PUSH2 0xDAA SWAP10 PUSH1 0x20 SWAP3 DUP9 SWAP3 PUSH2 0xEBC JUMPI JUMPDEST POP PUSH1 0x40 MLOAD PUSH4 0xA9059CBB PUSH1 0xE0 SHL DUP2 MSTORE PUSH1 0x1 PUSH1 0x1 PUSH1 0xA0 SHL SUB SWAP14 DUP15 AND PUSH1 0x4 DUP3 ADD MSTORE PUSH1 0x24 DUP2 ADD SWAP3 SWAP1 SWAP3 MSTORE SWAP1 SWAP12 AND SWAP11 SWAP9 DUP10 SWAP1 DUP13 SWAP1 DUP3 SWAP1 PUSH1 0x0 SWAP1 DUP3 SWAP1 PUSH1 0x44 DUP3 ADD SWAP1 JUMP JUMPDEST SUB SWAP3 GAS CALL SWAP8 DUP9 ISZERO PUSH2 0x573 JUMPI DUP7 PUSH1 0x40 SWAP9 DUP8 SWAP3 PUSH32 0xB39C9BC43F811E1A7CE159C5F147458FDB80266BF23C17322013316E27E086D0 SWAP12 PUSH2 0xE9F JUMPI JUMPDEST POP ISZERO PUSH2 0xE49 JUMPI SWAP1 PUSH2 0xDF9 PUSH2 0xDFF SWAP3 PUSH1 0x1 SWAP7 SWAP8 PUSH2 0x1365 JUMP JUMPDEST SWAP6 PUSH2 0x1358 JUMP JUMPDEST SWAP2 DUP8 MLOAD SWAP5 PUSH2 0xE0C DUP7 PUSH2 0x1267 JUMP JUMPDEST DUP6 MSTORE PUSH1 0x20 DUP6 ADD SWAP3 DUP4 MSTORE PUSH1 0x0 MSTORE PUSH1 0x6 PUSH1 0x20 MSTORE DUP7 PUSH1 0x0 KECCAK256 SWAP1 DUP4 DUP1 PUSH1 0xA0 SHL SUB AND PUSH1 0x0 MSTORE PUSH1 0x20 MSTORE DUP6 PUSH1 0x0 KECCAK256 SWAP3 MLOAD DUP4 SSTORE MLOAD SWAP2 ADD SSTORE JUMPDEST DUP3 MLOAD SWAP2 DUP3 MSTORE PUSH1 0x20 DUP3 ADD MSTORE LOG4 STOP JUMPDEST PUSH2 0xE58 PUSH2 0xE5E SWAP3 PUSH1 0x1 SWAP7 PUSH2 0x1358 JUMP JUMPDEST SWAP6 PUSH2 0x1365 JUMP JUMPDEST SWAP2 DUP8 MLOAD SWAP5 PUSH2 0xE6B DUP7 PUSH2 0x1267 JUMP JUMPDEST DUP6 MSTORE PUSH1 0x20 DUP6 ADD SWAP3 DUP4 MSTORE PUSH1 0x0 MSTORE PUSH1 0x6 PUSH1 0x20 MSTORE DUP7 PUSH1 0x0 KECCAK256 SWAP1 DUP4 DUP1 PUSH1 0xA0 SHL SUB AND PUSH1 0x0 MSTORE PUSH1 0x20 MSTORE DUP6 PUSH1 0x0 KECCAK256 SWAP3 MLOAD DUP4 SSTORE MLOAD SWAP2 ADD SSTORE PUSH2 0xE3C JUMP JUMPDEST PUSH2 0xEB7 SWAP1 PUSH1 0x20 RETURNDATASIZE PUSH1 0x20 GT PUSH2 0x56C JUMPI PUSH2 0x55F DUP2 DUP4 PUSH2 0x1299 JUMP JUMPDEST PUSH2 0xDE2 JUMP JUMPDEST PUSH2 0xED2 SWAP1 DUP5 RETURNDATASIZE DUP7 GT PUSH2 0x56C JUMPI PUSH2 0x55F DUP2 DUP4 PUSH2 0x1299 JUMP JUMPDEST PUSH2 0xD6D JUMP JUMPDEST PUSH1 0x40 MLOAD PUSH3 0x461BCD PUSH1 0xE5 SHL DUP2 MSTORE PUSH1 0x20 PUSH1 0x4 DUP3 ADD MSTORE PUSH1 0xA PUSH1 0x24 DUP3 ADD MSTORE PUSH10 0x131BDDC81BDD5D1C1D5D PUSH1 0xB2 SHL PUSH1 0x44 DUP3 ADD MSTORE PUSH1 0x64 SWAP1 REVERT JUMPDEST POP DUP2 ISZERO ISZERO PUSH2 0xD10 JUMP JUMPDEST SWAP1 PUSH2 0xD07 JUMP JUMPDEST PUSH4 0x4E487B71 PUSH1 0xE0 SHL PUSH1 0x0 MSTORE PUSH1 0x32 PUSH1 0x4 MSTORE PUSH1 0x24 PUSH1 0x0 REVERT JUMPDEST PUSH1 0x40 MLOAD PUSH3 0x461BCD PUSH1 0xE5 SHL DUP2 MSTORE PUSH1 0x20 PUSH1 0x4 DUP3 ADD MSTORE PUSH1 0xC PUSH1 0x24 DUP3 ADD MSTORE PUSH12 0x92DCECC2D8D2C840E0C2E8D PUSH1 0xA3 SHL PUSH1 0x44 DUP3 ADD MSTORE PUSH1 0x64 SWAP1 REVERT JUMPDEST CALLVALUE PUSH2 0x16C JUMPI PUSH1 0x0 CALLDATASIZE PUSH1 0x3 NOT ADD SLT PUSH2 0x16C JUMPI PUSH1 0x20 PUSH1 0x40 MLOAD PUSH1 0x12 DUP2 MSTORE RETURN JUMPDEST CALLVALUE PUSH2 0x16C JUMPI PUSH1 0x60 CALLDATASIZE PUSH1 0x3 NOT ADD SLT PUSH2 0x16C JUMPI PUSH2 0xF97 PUSH2 0x123B JUMP JUMPDEST PUSH2 0xF9F PUSH2 0x1251 JUMP JUMPDEST PUSH1 0x1 PUSH1 0x1 PUSH1 0xA0 SHL SUB DUP3 AND PUSH1 0x0 DUP2 DUP2 MSTORE PUSH1 0x1 PUSH1 0x20 SWAP1 DUP2 MSTORE PUSH1 0x40 DUP1 DUP4 KECCAK256 CALLER DUP5 MSTORE SWAP1 SWAP2 MSTORE SWAP1 KECCAK256 SLOAD SWAP1 SWAP3 PUSH1 0x44 CALLDATALOAD SWAP3 SWAP2 PUSH1 0x0 NOT DUP2 LT PUSH2 0xFDF JUMPI JUMPDEST POP PUSH2 0xA20 SWAP4 POP PUSH2 0x14CD JUMP JUMPDEST DUP4 DUP2 LT PUSH2 0x104E JUMPI DUP5 ISZERO PUSH2 0x1038 JUMPI CALLER ISZERO PUSH2 0x1022 JUMPI PUSH2 0xA20 SWAP5 PUSH1 0x0 MSTORE PUSH1 0x1 PUSH1 0x20 MSTORE PUSH1 0x40 PUSH1 0x0 KECCAK256 PUSH1 0x1 DUP1 PUSH1 0xA0 SHL SUB CALLER AND PUSH1 0x0 MSTORE PUSH1 0x20 MSTORE DUP4 PUSH1 0x40 PUSH1 0x0 KECCAK256 SWAP2 SUB SWAP1 SSTORE DUP5 PUSH2 0xFD4 JUMP JUMPDEST PUSH4 0x4A1406B1 PUSH1 0xE1 SHL PUSH1 0x0 MSTORE PUSH1 0x0 PUSH1 0x4 MSTORE PUSH1 0x24 PUSH1 0x0 REVERT JUMPDEST PUSH4 0xE602DF05 PUSH1 0xE0 SHL PUSH1 0x0 MSTORE PUSH1 0x0 PUSH1 0x4 MSTORE PUSH1 0x24 PUSH1 0x0 REVERT JUMPDEST DUP4 SWAP1 PUSH4 0x7DC7A0D9 PUSH1 0xE1 SHL PUSH1 0x0 MSTORE CALLER PUSH1 0x4 MSTORE PUSH1 0x24 MSTORE PUSH1 0x44 MSTORE PUSH1 0x64 PUSH1 0x0 REVERT JUMPDEST CALLVALUE PUSH2 0x16C JUMPI PUSH1 0x0 CALLDATASIZE PUSH1 0x3 NOT ADD SLT PUSH2 0x16C JUMPI PUSH1 0x20 PUSH1 0x2 SLOAD PUSH1 0x40 MLOAD SWAP1 DUP2 MSTORE RETURN JUMPDEST CALLVALUE PUSH2 0x16C JUMPI PUSH1 0x40 CALLDATASIZE PUSH1 0x3 NOT ADD SLT PUSH2 0x16C JUMPI PUSH2 0x10A2 PUSH2 0x123B JUMP JUMPDEST PUSH1 0x24 CALLDATALOAD SWAP1 CALLER ISZERO PUSH2 0x1038 JUMPI PUSH1 0x1 PUSH1 0x1 PUSH1 0xA0 SHL SUB AND SWAP1 DUP2 ISZERO PUSH2 0x1022 JUMPI CALLER PUSH1 0x0 MSTORE PUSH1 0x1 PUSH1 0x20 MSTORE PUSH1 0x40 PUSH1 0x0 KECCAK256 DUP3 PUSH1 0x0 MSTORE PUSH1 0x20 MSTORE DUP1 PUSH1 0x40 PUSH1 0x0 KECCAK256 SSTORE PUSH1 0x40 MLOAD SWAP1 DUP2 MSTORE PUSH32 0x8C5BE1E5EBEC7D5BD14F71427D1E84F3DD0314C0F7B2291E5B200AC8C7C3B925 PUSH1 0x20 CALLER SWAP3 LOG3 PUSH1 0x20 PUSH1 0x40 MLOAD PUSH1 0x1 DUP2 MSTORE RETURN JUMPDEST CALLVALUE PUSH2 0x16C JUMPI PUSH1 0x0 CALLDATASIZE PUSH1 0x3 NOT ADD SLT PUSH2 0x16C JUMPI PUSH1 0x40 MLOAD PUSH1 0x0 PUSH1 0x3 SLOAD DUP1 PUSH1 0x1 SHR SWAP1 PUSH1 0x1 DUP2 AND DUP1 ISZERO PUSH2 0x11C4 JUMPI JUMPDEST PUSH1 0x20 DUP4 LT DUP2 EQ PUSH2 0xB11 JUMPI DUP3 DUP6 MSTORE SWAP1 DUP2 ISZERO PUSH2 0xAED JUMPI POP PUSH1 0x1 EQ PUSH2 0x1164 JUMPI PUSH2 0x40F DUP4 PUSH2 0xA81 DUP2 DUP6 SUB DUP3 PUSH2 0x1299 JUMP JUMPDEST SWAP2 SWAP1 POP PUSH1 0x3 PUSH1 0x0 MSTORE PUSH32 0xC2575A0E9E593C00F959F8C92F12DB2869C3395A3B0502D05E2516446F71F85B SWAP2 PUSH1 0x0 SWAP1 JUMPDEST DUP1 DUP3 LT PUSH2 0x11AA JUMPI POP SWAP1 SWAP2 POP DUP2 ADD PUSH1 0x20 ADD PUSH2 0xA81 PUSH2 0xA71 JUMP JUMPDEST SWAP2 SWAP3 PUSH1 0x1 DUP2 PUSH1 0x20 SWAP3 SLOAD DUP4 DUP6 DUP9 ADD ADD MSTORE ADD SWAP2 ADD SWAP1 SWAP3 SWAP2 PUSH2 0x1192 JUMP JUMPDEST SWAP2 PUSH1 0x7F AND SWAP2 PUSH2 0x1138 JUMP JUMPDEST CALLVALUE PUSH2 0x16C JUMPI PUSH1 0x60 CALLDATASIZE PUSH1 0x3 NOT ADD SLT PUSH2 0x16C JUMPI PUSH1 0x20 PUSH2 0x9F2 PUSH1 0x44 CALLDATALOAD PUSH1 0x24 CALLDATALOAD PUSH1 0x4 CALLDATALOAD PUSH2 0x1458 JUMP JUMPDEST SWAP2 SWAP1 SWAP2 PUSH1 0x20 DUP2 MSTORE DUP3 MLOAD DUP1 PUSH1 0x20 DUP4 ADD MSTORE PUSH1 0x0 JUMPDEST DUP2 DUP2 LT PUSH2 0x1225 JUMPI POP PUSH1 0x40 SWAP3 SWAP4 POP PUSH1 0x0 DUP4 DUP3 DUP5 ADD ADD MSTORE PUSH1 0x1F DUP1 NOT SWAP2 ADD AND ADD ADD SWAP1 JUMP JUMPDEST DUP1 PUSH1 0x20 DUP1 SWAP3 DUP8 ADD ADD MLOAD PUSH1 0x40 DUP3 DUP7 ADD ADD MSTORE ADD PUSH2 0x1204 JUMP JUMPDEST PUSH1 0x4 CALLDATALOAD SWAP1 PUSH1 0x1 PUSH1 0x1 PUSH1 0xA0 SHL SUB DUP3 AND DUP3 SUB PUSH2 0x16C JUMPI JUMP JUMPDEST PUSH1 0x24 CALLDATALOAD SWAP1 PUSH1 0x1 PUSH1 0x1 PUSH1 0xA0 SHL SUB DUP3 AND DUP3 SUB PUSH2 0x16C JUMPI JUMP JUMPDEST PUSH1 0x40 DUP2 ADD SWAP1 DUP2 LT PUSH8 0xFFFFFFFFFFFFFFFF DUP3 GT OR PUSH2 0x1283 JUMPI PUSH1 0x40 MSTORE JUMP JUMPDEST PUSH4 0x4E487B71 PUSH1 0xE0 SHL PUSH1 0x0 MSTORE PUSH1 0x41 PUSH1 0x4 MSTORE PUSH1 0x24 PUSH1 0x0 REVERT JUMPDEST SWAP1 PUSH1 0x1F DUP1 NOT SWAP2 ADD AND DUP2 ADD SWAP1 DUP2 LT PUSH8 0xFFFFFFFFFFFFFFFF DUP3 GT OR PUSH2 0x1283 JUMPI PUSH1 0x40 MSTORE JUMP JUMPDEST ISZERO PUSH2 0x12C2 JUMPI JUMP JUMPDEST PUSH1 0x40 MLOAD PUSH3 0x461BCD PUSH1 0xE5 SHL DUP2 MSTORE PUSH1 0x20 PUSH1 0x4 DUP3 ADD MSTORE PUSH1 0x7 PUSH1 0x24 DUP3 ADD MSTORE PUSH7 0x115E1C1A5C9959 PUSH1 0xCA SHL PUSH1 0x44 DUP3 ADD MSTORE PUSH1 0x64 SWAP1 REVERT JUMPDEST CALLDATALOAD PUSH1 0x1 PUSH1 0x1 PUSH1 0xA0 SHL SUB DUP2 AND DUP2 SUB PUSH2 0x16C JUMPI SWAP1 JUMP JUMPDEST ISZERO PUSH2 0x130C JUMPI JUMP JUMPDEST PUSH1 0x40 MLOAD PUSH3 0x461BCD PUSH1 0xE5 SHL DUP2 MSTORE PUSH1 0x20 PUSH1 0x4 DUP3 ADD MSTORE PUSH1 0xC PUSH1 0x24 DUP3 ADD MSTORE PUSH12 0x4E6F206C6971756964697479 PUSH1 0xA0 SHL PUSH1 0x44 DUP3 ADD MSTORE PUSH1 0x64 SWAP1 REVERT JUMPDEST SWAP1 DUP2 PUSH1 0x20 SWAP2 SUB SLT PUSH2 0x16C JUMPI MLOAD DUP1 ISZERO ISZERO DUP2 SUB PUSH2 0x16C JUMPI SWAP1 JUMP JUMPDEST SWAP2 SWAP1 DUP3 SUB SWAP2 DUP3 GT PUSH2 0x4CC JUMPI JUMP JUMPDEST SWAP2 SWAP1 DUP3 ADD DUP1 SWAP3 GT PUSH2 0x4CC JUMPI JUMP JUMPDEST DUP2 DUP2 MUL SWAP3 SWAP2 DUP2 ISZERO SWAP2 DUP5 DIV EQ OR ISZERO PUSH2 0x4CC JUMPI JUMP JUMPDEST DUP2 ISZERO PUSH2 0x138F JUMPI DIV SWAP1 JUMP JUMPDEST PUSH4 0x4E487B71 PUSH1 0xE0 SHL PUSH1 0x0 MSTORE PUSH1 0x12 PUSH1 0x4 MSTORE PUSH1 0x24 PUSH1 0x0 REVERT JUMPDEST ISZERO PUSH2 0x13AC JUMPI JUMP JUMPDEST PUSH1 0x40 MLOAD PUSH3 0x461BCD PUSH1 0xE5 SHL DUP2 MSTORE PUSH1 0x20 PUSH1 0x4 DUP3 ADD MSTORE PUSH1 0xB PUSH1 0x24 DUP3 ADD MSTORE PUSH11 0x4C6F7720616D6F756E7441 PUSH1 0xA8 SHL PUSH1 0x44 DUP3 ADD MSTORE PUSH1 0x64 SWAP1 REVERT JUMPDEST ISZERO PUSH2 0x13E6 JUMPI JUMP JUMPDEST PUSH1 0x40 MLOAD PUSH3 0x461BCD PUSH1 0xE5 SHL DUP2 MSTORE PUSH1 0x20 PUSH1 0x4 DUP3 ADD MSTORE PUSH1 0xB PUSH1 0x24 DUP3 ADD MSTORE PUSH11 0x2637BB9030B6B7BAB73A21 PUSH1 0xA9 SHL PUSH1 0x44 DUP3 ADD MSTORE PUSH1 0x64 SWAP1 REVERT JUMPDEST ISZERO PUSH2 0x1420 JUMPI JUMP JUMPDEST PUSH1 0x40 MLOAD PUSH3 0x461BCD PUSH1 0xE5 SHL DUP2 MSTORE PUSH1 0x20 PUSH1 0x4 DUP3 ADD MSTORE PUSH1 0x10 PUSH1 0x24 DUP3 ADD MSTORE PUSH16 0x496E76616C6964207265736572766573 PUSH1 0x80 SHL PUSH1 0x44 DUP3 ADD MSTORE PUSH1 0x64 SWAP1 REVERT JUMPDEST SWAP2 DUP3 ISZERO PUSH2 0x149A JUMPI PUSH2 0x148E SWAP3 PUSH2 0x1482 PUSH2 0x1488 SWAP3 DUP5 ISZERO ISZERO DUP1 PUSH2 0x1491 JUMPI JUMPDEST PUSH2 0x147C SWAP1 PUSH2 0x1419 JUMP JUMPDEST DUP3 PUSH2 0x1372 JUMP JUMPDEST SWAP3 PUSH2 0x1365 JUMP JUMPDEST SWAP1 PUSH2 0x1385 JUMP JUMPDEST SWAP1 JUMP JUMPDEST POP DUP1 ISZERO ISZERO PUSH2 0x1473 JUMP JUMPDEST PUSH1 0x40 MLOAD PUSH3 0x461BCD PUSH1 0xE5 SHL DUP2 MSTORE PUSH1 0x20 PUSH1 0x4 DUP3 ADD MSTORE PUSH1 0xB PUSH1 0x24 DUP3 ADD MSTORE PUSH11 0x16995C9BC8185B5BDD5B9D PUSH1 0xAA SHL PUSH1 0x44 DUP3 ADD MSTORE PUSH1 0x64 SWAP1 REVERT JUMPDEST PUSH1 0x1 PUSH1 0x1 PUSH1 0xA0 SHL SUB AND SWAP1 DUP2 ISZERO PUSH2 0x982 JUMPI PUSH1 0x1 PUSH1 0x1 PUSH1 0xA0 SHL SUB AND SWAP2 DUP3 ISZERO PUSH2 0x462 JUMPI PUSH1 0x0 DUP3 DUP2 MSTORE DUP1 PUSH1 0x20 MSTORE PUSH1 0x40 DUP2 KECCAK256 SLOAD DUP3 DUP2 LT PUSH2 0x154C JUMPI SWAP2 PUSH1 0x40 DUP3 DUP3 PUSH32 0xDDF252AD1BE2C89B69C2B068FC378DAA952BA7F163C4A11628F55A4DF523B3EF SWAP6 DUP8 PUSH1 0x20 SWAP7 MSTORE DUP3 DUP7 MSTORE SUB DUP3 DUP3 KECCAK256 SSTORE DUP7 DUP2 MSTORE DUP1 DUP5 MSTORE KECCAK256 DUP2 DUP2 SLOAD ADD SWAP1 SSTORE PUSH1 0x40 MLOAD SWAP1 DUP2 MSTORE LOG3 JUMP JUMPDEST SWAP2 PUSH1 0x64 SWAP3 DUP5 PUSH4 0x391434E3 PUSH1 0xE2 SHL DUP5 MSTORE PUSH1 0x4 MSTORE PUSH1 0x24 MSTORE PUSH1 0x44 MSTORE REVERT JUMPDEST PUSH1 0x1 PUSH1 0x1 PUSH1 0xA0 SHL SUB DUP3 DUP2 AND SWAP1 DUP3 AND DUP1 DUP3 EQ PUSH2 0x15D3 JUMPI DUP1 ISZERO ISZERO DUP1 PUSH2 0x15CA JUMPI JUMPDEST ISZERO PUSH2 0x1596 JUMPI LT ISZERO PUSH2 0x1592 JUMPI SWAP2 JUMP JUMPDEST SWAP1 SWAP2 JUMP JUMPDEST PUSH1 0x40 MLOAD PUSH3 0x461BCD PUSH1 0xE5 SHL DUP2 MSTORE PUSH1 0x20 PUSH1 0x4 DUP3 ADD MSTORE PUSH1 0xC PUSH1 0x24 DUP3 ADD MSTORE PUSH12 0x5A65726F2061646472657373 PUSH1 0xA0 SHL PUSH1 0x44 DUP3 ADD MSTORE PUSH1 0x64 SWAP1 REVERT JUMPDEST POP DUP2 ISZERO ISZERO PUSH2 0x1584 JUMP JUMPDEST PUSH1 0x40 MLOAD PUSH3 0x461BCD PUSH1 0xE5 SHL DUP2 MSTORE PUSH1 0x20 PUSH1 0x4 DUP3 ADD MSTORE PUSH1 0xA PUSH1 0x24 DUP3 ADD MSTORE PUSH10 0x29B0B6B2903A37B5B2B7 PUSH1 0xB1 SHL PUSH1 0x44 DUP3 ADD MSTORE PUSH1 0x64 SWAP1 REVERT JUMPDEST PUSH1 0x5 SLOAD PUSH1 0x1 PUSH1 0x1 PUSH1 0xA0 SHL SUB AND CALLER SUB PUSH2 0x1619 JUMPI JUMP JUMPDEST PUSH4 0x118CDAA7 PUSH1 0xE0 SHL PUSH1 0x0 MSTORE CALLER PUSH1 0x4 MSTORE PUSH1 0x24 PUSH1 0x0 REVERT JUMPDEST PUSH2 0x163A PUSH1 0x20 SWAP3 DUP3 PUSH2 0x1566 JUMP JUMPDEST PUSH1 0x1 PUSH1 0x1 PUSH1 0xA0 SHL SUB SWAP2 DUP3 AND PUSH1 0x0 DUP2 DUP2 MSTORE PUSH1 0x6 DUP7 MSTORE PUSH1 0x40 DUP1 DUP3 KECCAK256 SWAP5 SWAP1 SWAP4 AND DUP2 MSTORE SWAP3 DUP6 MSTORE SWAP2 DUP2 SWAP1 KECCAK256 SWAP1 MLOAD SWAP1 SWAP3 SWAP1 PUSH2 0x166E DUP2 PUSH2 0x1267 JUMP JUMPDEST DUP4 SLOAD DUP1 DUP3 MSTORE PUSH1 0x1 SWAP1 SWAP5 ADD SLOAD SWAP5 ADD DUP5 SWAP1 MSTORE PUSH1 0x1 PUSH1 0x1 PUSH1 0xA0 SHL SUB AND SUB PUSH2 0x1592 JUMPI SWAP2 JUMP JUMPDEST SWAP2 SWAP6 SWAP5 SWAP1 SWAP3 SWAP6 DUP3 ISZERO DUP1 PUSH2 0x16F5 JUMPI JUMPDEST PUSH2 0x16EC JUMPI PUSH2 0x16AF DUP4 PUSH2 0x51B DUP7 DUP5 PUSH2 0x1372 JUMP JUMPDEST SWAP2 DUP8 DUP4 GT ISZERO PUSH2 0x16D9 JUMPI POP POP POP PUSH2 0x16D5 SWAP2 PUSH2 0x51B PUSH2 0x16CC SWAP3 DUP8 PUSH2 0x1372 JUMP JUMPDEST SWAP2 DUP3 LT ISZERO PUSH2 0x13A5 JUMP JUMPDEST SWAP2 SWAP1 JUMP JUMPDEST SWAP3 POP SWAP4 POP DUP1 SWAP6 POP PUSH2 0x16D5 SWAP3 POP LT ISZERO PUSH2 0x13DF JUMP JUMPDEST SWAP4 POP POP POP POP SWAP2 SWAP1 JUMP JUMPDEST POP DUP4 ISZERO PUSH2 0x169D JUMP INVALID LOG2 PUSH5 0x6970667358 0x22 SLT KECCAK256 0x1E 0xBC COINBASE NUMBER PUSH5 0x5EE2ECFC07 GASLIMIT 0xCE 0xB4 BALANCE 0x26 BLOBHASH LOG1 PUSH24 0xF46D27CA90210ADB7073F26D62D264736F6C634300081C00 CALLER "
        },
        "methodIdentifiers": {
          "addLiquidity(address,address,uint256,uint256,uint256,uint256,address,uint256)": "e8e33700",
          "allowance(address,address)": "dd62ed3e",
          "approve(address,uint256)": "095ea7b3",
          "balanceOf(address)": "70a08231",
          "decimals()": "313ce567",
          "getAmountOut(uint256,uint256,uint256)": "054d50d4",
          "getPrice(address,address)": "ac41865a",
          "getReserves(address,address)": "d52bb6f4",
          "name()": "06fdde03",
          "owner()": "8da5cb5b",
          "removeLiquidity(address,address,uint256,uint256,uint256,address,uint256)": "baa2abde",
          "renounceOwnership()": "715018a6",
          "swapExactTokensForTokens(uint256,uint256,address[],address,uint256)": "38ed1739",
          "symbol()": "95d89b41",
          "totalSupply()": "18160ddd",
          "transfer(address,uint256)": "a9059cbb",
          "transferFrom(address,address,uint256)": "23b872dd",
          "transferOwnership(address)": "f2fde38b"
        }
      }
    }
  }
}